{
	"contracts/OpenSale.sol": {
		"OpenSale": {
			"abi": [
				{
					"inputs": [
						{
							"internalType": "address",
							"name": "_mintContract",
							"type": "address"
						},
						{
							"internalType": "address",
							"name": "_ownershipControl",
							"type": "address"
						}
					],
					"stateMutability": "nonpayable",
					"type": "constructor"
				},
				{
					"inputs": [
						{
							"internalType": "address",
							"name": "owner",
							"type": "address"
						}
					],
					"name": "OwnableInvalidOwner",
					"type": "error"
				},
				{
					"inputs": [
						{
							"internalType": "address",
							"name": "account",
							"type": "address"
						}
					],
					"name": "OwnableUnauthorizedAccount",
					"type": "error"
				},
				{
					"anonymous": false,
					"inputs": [
						{
							"indexed": true,
							"internalType": "uint256",
							"name": "tokenId",
							"type": "uint256"
						},
						{
							"indexed": true,
							"internalType": "address",
							"name": "seller",
							"type": "address"
						}
					],
					"name": "Cancelled",
					"type": "event"
				},
				{
					"anonymous": false,
					"inputs": [
						{
							"indexed": true,
							"internalType": "uint256",
							"name": "tokenId",
							"type": "uint256"
						},
						{
							"indexed": true,
							"internalType": "address",
							"name": "seller",
							"type": "address"
						},
						{
							"indexed": false,
							"internalType": "uint256",
							"name": "price",
							"type": "uint256"
						}
					],
					"name": "Listed",
					"type": "event"
				},
				{
					"anonymous": false,
					"inputs": [
						{
							"indexed": true,
							"internalType": "address",
							"name": "previousOwner",
							"type": "address"
						},
						{
							"indexed": true,
							"internalType": "address",
							"name": "newOwner",
							"type": "address"
						}
					],
					"name": "OwnershipTransferred",
					"type": "event"
				},
				{
					"anonymous": false,
					"inputs": [
						{
							"indexed": true,
							"internalType": "uint256",
							"name": "tokenId",
							"type": "uint256"
						},
						{
							"indexed": true,
							"internalType": "address",
							"name": "buyer",
							"type": "address"
						},
						{
							"indexed": false,
							"internalType": "uint256",
							"name": "price",
							"type": "uint256"
						}
					],
					"name": "Purchased",
					"type": "event"
				},
				{
					"inputs": [
						{
							"internalType": "uint256",
							"name": "tokenId",
							"type": "uint256"
						}
					],
					"name": "cancelListing",
					"outputs": [],
					"stateMutability": "nonpayable",
					"type": "function"
				},
				{
					"inputs": [
						{
							"internalType": "uint256",
							"name": "tokenId",
							"type": "uint256"
						}
					],
					"name": "getListing",
					"outputs": [
						{
							"components": [
								{
									"internalType": "uint256",
									"name": "price",
									"type": "uint256"
								},
								{
									"internalType": "address",
									"name": "seller",
									"type": "address"
								}
							],
							"internalType": "struct OpenSale.Listing",
							"name": "",
							"type": "tuple"
						}
					],
					"stateMutability": "view",
					"type": "function"
				},
				{
					"inputs": [
						{
							"internalType": "uint256",
							"name": "tokenId",
							"type": "uint256"
						},
						{
							"internalType": "uint256",
							"name": "price",
							"type": "uint256"
						}
					],
					"name": "listForSale",
					"outputs": [],
					"stateMutability": "nonpayable",
					"type": "function"
				},
				{
					"inputs": [
						{
							"internalType": "uint256",
							"name": "",
							"type": "uint256"
						}
					],
					"name": "listings",
					"outputs": [
						{
							"internalType": "uint256",
							"name": "price",
							"type": "uint256"
						},
						{
							"internalType": "address",
							"name": "seller",
							"type": "address"
						}
					],
					"stateMutability": "view",
					"type": "function"
				},
				{
					"inputs": [],
					"name": "mintContract",
					"outputs": [
						{
							"internalType": "contract IMintContract",
							"name": "",
							"type": "address"
						}
					],
					"stateMutability": "view",
					"type": "function"
				},
				{
					"inputs": [],
					"name": "owner",
					"outputs": [
						{
							"internalType": "address",
							"name": "",
							"type": "address"
						}
					],
					"stateMutability": "view",
					"type": "function"
				},
				{
					"inputs": [],
					"name": "ownershipControl",
					"outputs": [
						{
							"internalType": "contract IOwnershipControl",
							"name": "",
							"type": "address"
						}
					],
					"stateMutability": "view",
					"type": "function"
				},
				{
					"inputs": [
						{
							"internalType": "uint256",
							"name": "tokenId",
							"type": "uint256"
						}
					],
					"name": "purchase",
					"outputs": [],
					"stateMutability": "payable",
					"type": "function"
				},
				{
					"inputs": [],
					"name": "renounceOwnership",
					"outputs": [],
					"stateMutability": "nonpayable",
					"type": "function"
				},
				{
					"inputs": [
						{
							"internalType": "address",
							"name": "newOwner",
							"type": "address"
						}
					],
					"name": "transferOwnership",
					"outputs": [],
					"stateMutability": "nonpayable",
					"type": "function"
				}
			],
			"devdoc": {
				"details": "Integrates with MintContract (ERC721) and OwnershipControl for full traceability.",
				"errors": {
					"OwnableInvalidOwner(address)": [
						{
							"details": "The owner is not a valid owner account. (eg. `address(0)`)"
						}
					],
					"OwnableUnauthorizedAccount(address)": [
						{
							"details": "The caller account is not authorized to perform an operation."
						}
					]
				},
				"kind": "dev",
				"methods": {
					"cancelListing(uint256)": {
						"params": {
							"tokenId": "Token to cancel"
						}
					},
					"getListing(uint256)": {
						"params": {
							"tokenId": "Token to query"
						},
						"returns": {
							"_0": "Listing struct (price and seller)"
						}
					},
					"listForSale(uint256,uint256)": {
						"params": {
							"price": "Price in wei",
							"tokenId": "Token to list"
						}
					},
					"owner()": {
						"details": "Returns the address of the current owner."
					},
					"purchase(uint256)": {
						"params": {
							"tokenId": "Token to purchase"
						}
					},
					"renounceOwnership()": {
						"details": "Leaves the contract without owner. It will not be possible to call `onlyOwner` functions. Can only be called by the current owner. NOTE: Renouncing ownership will leave the contract without an owner, thereby disabling any functionality that is only available to the owner."
					},
					"transferOwnership(address)": {
						"details": "Transfers ownership of the contract to a new account (`newOwner`). Can only be called by the current owner."
					}
				},
				"title": "OpenSale",
				"version": 1
			},
			"evm": {
				"assembly": "    /* \"contracts/OpenSale.sol\":858:3869  contract OpenSale is Ownable, ReentrancyGuard {... */\n  mstore(0x40, 0x80)\n    /* \"contracts/OpenSale.sol\":1503:1863  constructor(address _mintContract, address _ownershipControl) Ownable(msg.sender) {... */\n  callvalue\n  dup1\n  iszero\n  tag_1\n  jumpi\n  0x00\n  dup1\n  revert\ntag_1:\n  pop\n  mload(0x40)\n  sub(codesize, bytecodeSize)\n  dup1\n  bytecodeSize\n  dup4\n  codecopy\n  dup2\n  dup2\n  add\n  0x40\n  mstore\n  dup2\n  add\n  swap1\n  tag_2\n  swap2\n  swap1\n  tag_3\n  jump\t// in\ntag_2:\n    /* \"contracts/OpenSale.sol\":1573:1583  msg.sender */\n  caller\n    /* \"@openzeppelin/contracts/access/Ownable.sol\":1297:1298  0 */\n  0x00\n    /* \"@openzeppelin/contracts/access/Ownable.sol\":1273:1299  initialOwner == address(0) */\n  0xffffffffffffffffffffffffffffffffffffffff\n  and\n    /* \"@openzeppelin/contracts/access/Ownable.sol\":1273:1285  initialOwner */\n  dup2\n    /* \"@openzeppelin/contracts/access/Ownable.sol\":1273:1299  initialOwner == address(0) */\n  0xffffffffffffffffffffffffffffffffffffffff\n  and\n  sub\n    /* \"@openzeppelin/contracts/access/Ownable.sol\":1269:1364  if (initialOwner == address(0)) {... */\n  tag_8\n  jumpi\n    /* \"@openzeppelin/contracts/access/Ownable.sol\":1350:1351  0 */\n  0x00\n    /* \"@openzeppelin/contracts/access/Ownable.sol\":1322:1353  OwnableInvalidOwner(address(0)) */\n  mload(0x40)\n  0x1e4fbdf700000000000000000000000000000000000000000000000000000000\n  dup2\n  mstore\n  0x04\n  add\n  tag_9\n  swap2\n  swap1\n  tag_10\n  jump\t// in\ntag_9:\n  mload(0x40)\n  dup1\n  swap2\n  sub\n  swap1\n  revert\n    /* \"@openzeppelin/contracts/access/Ownable.sol\":1269:1364  if (initialOwner == address(0)) {... */\ntag_8:\n    /* \"@openzeppelin/contracts/access/Ownable.sol\":1373:1405  _transferOwnership(initialOwner) */\n  tag_11\n    /* \"@openzeppelin/contracts/access/Ownable.sol\":1392:1404  initialOwner */\n  dup2\n    /* \"@openzeppelin/contracts/access/Ownable.sol\":1373:1391  _transferOwnership */\n  shl(0x20, tag_12)\n    /* \"@openzeppelin/contracts/access/Ownable.sol\":1373:1405  _transferOwnership(initialOwner) */\n  0x20\n  shr\n  jump\t// in\ntag_11:\n    /* \"@openzeppelin/contracts/access/Ownable.sol\":1225:1412  constructor(address initialOwner) {... */\n  pop\n    /* \"@openzeppelin/contracts/security/ReentrancyGuard.sol\":1716:1717  1 */\n  0x01\n    /* \"@openzeppelin/contracts/security/ReentrancyGuard.sol\":1821:1828  _status */\n  dup1\n    /* \"@openzeppelin/contracts/security/ReentrancyGuard.sol\":1821:1843  _status = _NOT_ENTERED */\n  dup2\n  swap1\n  sstore\n  pop\n    /* \"contracts/OpenSale.sol\":1629:1630  0 */\n  0x00\n    /* \"contracts/OpenSale.sol\":1604:1631  _mintContract != address(0) */\n  0xffffffffffffffffffffffffffffffffffffffff\n  and\n    /* \"contracts/OpenSale.sol\":1604:1617  _mintContract */\n  dup3\n    /* \"contracts/OpenSale.sol\":1604:1631  _mintContract != address(0) */\n  0xffffffffffffffffffffffffffffffffffffffff\n  and\n  sub\n    /* \"contracts/OpenSale.sol\":1596:1656  require(_mintContract != address(0), \"Invalid MintContract\") */\n  tag_15\n  jumpi\n  mload(0x40)\n  0x08c379a000000000000000000000000000000000000000000000000000000000\n  dup2\n  mstore\n  0x04\n  add\n  tag_16\n  swap1\n  tag_17\n  jump\t// in\ntag_16:\n  mload(0x40)\n  dup1\n  swap2\n  sub\n  swap1\n  revert\ntag_15:\n    /* \"contracts/OpenSale.sol\":1704:1705  0 */\n  0x00\n    /* \"contracts/OpenSale.sol\":1675:1706  _ownershipControl != address(0) */\n  0xffffffffffffffffffffffffffffffffffffffff\n  and\n    /* \"contracts/OpenSale.sol\":1675:1692  _ownershipControl */\n  dup2\n    /* \"contracts/OpenSale.sol\":1675:1706  _ownershipControl != address(0) */\n  0xffffffffffffffffffffffffffffffffffffffff\n  and\n  sub\n    /* \"contracts/OpenSale.sol\":1667:1735  require(_ownershipControl != address(0), \"Invalid OwnershipControl\") */\n  tag_18\n  jumpi\n  mload(0x40)\n  0x08c379a000000000000000000000000000000000000000000000000000000000\n  dup2\n  mstore\n  0x04\n  add\n  tag_19\n  swap1\n  tag_20\n  jump\t// in\ntag_19:\n  mload(0x40)\n  dup1\n  swap2\n  sub\n  swap1\n  revert\ntag_18:\n    /* \"contracts/OpenSale.sol\":1775:1788  _mintContract */\n  dup2\n    /* \"contracts/OpenSale.sol\":1746:1758  mintContract */\n  0x03\n  0x00\n    /* \"contracts/OpenSale.sol\":1746:1789  mintContract = IMintContract(_mintContract) */\n  0x0100\n  exp\n  dup2\n  sload\n  dup2\n  0xffffffffffffffffffffffffffffffffffffffff\n  mul\n  not\n  and\n  swap1\n  dup4\n  0xffffffffffffffffffffffffffffffffffffffff\n  and\n  mul\n  or\n  swap1\n  sstore\n  pop\n    /* \"contracts/OpenSale.sol\":1837:1854  _ownershipControl */\n  dup1\n    /* \"contracts/OpenSale.sol\":1800:1816  ownershipControl */\n  0x04\n  0x00\n    /* \"contracts/OpenSale.sol\":1800:1855  ownershipControl = IOwnershipControl(_ownershipControl) */\n  0x0100\n  exp\n  dup2\n  sload\n  dup2\n  0xffffffffffffffffffffffffffffffffffffffff\n  mul\n  not\n  and\n  swap1\n  dup4\n  0xffffffffffffffffffffffffffffffffffffffff\n  and\n  mul\n  or\n  swap1\n  sstore\n  pop\n    /* \"contracts/OpenSale.sol\":1503:1863  constructor(address _mintContract, address _ownershipControl) Ownable(msg.sender) {... */\n  pop\n  pop\n    /* \"contracts/OpenSale.sol\":858:3869  contract OpenSale is Ownable, ReentrancyGuard {... */\n  jump(tag_21)\n    /* \"@openzeppelin/contracts/access/Ownable.sol\":2912:3099  function _transferOwnership(address newOwner) internal virtual {... */\ntag_12:\n    /* \"@openzeppelin/contracts/access/Ownable.sol\":2985:3001  address oldOwner */\n  0x00\n    /* \"@openzeppelin/contracts/access/Ownable.sol\":3004:3010  _owner */\n  dup1\n  0x00\n  swap1\n  sload\n  swap1\n  0x0100\n  exp\n  swap1\n  div\n  0xffffffffffffffffffffffffffffffffffffffff\n  and\n    /* \"@openzeppelin/contracts/access/Ownable.sol\":2985:3010  address oldOwner = _owner */\n  swap1\n  pop\n    /* \"@openzeppelin/contracts/access/Ownable.sol\":3029:3037  newOwner */\n  dup2\n    /* \"@openzeppelin/contracts/access/Ownable.sol\":3020:3026  _owner */\n  0x00\n  dup1\n    /* \"@openzeppelin/contracts/access/Ownable.sol\":3020:3037  _owner = newOwner */\n  0x0100\n  exp\n  dup2\n  sload\n  dup2\n  0xffffffffffffffffffffffffffffffffffffffff\n  mul\n  not\n  and\n  swap1\n  dup4\n  0xffffffffffffffffffffffffffffffffffffffff\n  and\n  mul\n  or\n  swap1\n  sstore\n  pop\n    /* \"@openzeppelin/contracts/access/Ownable.sol\":3083:3091  newOwner */\n  dup2\n    /* \"@openzeppelin/contracts/access/Ownable.sol\":3052:3092  OwnershipTransferred(oldOwner, newOwner) */\n  0xffffffffffffffffffffffffffffffffffffffff\n  and\n    /* \"@openzeppelin/contracts/access/Ownable.sol\":3073:3081  oldOwner */\n  dup2\n    /* \"@openzeppelin/contracts/access/Ownable.sol\":3052:3092  OwnershipTransferred(oldOwner, newOwner) */\n  0xffffffffffffffffffffffffffffffffffffffff\n  and\n  0x8be0079c531659141344cd1fd0a4f28419497f9722a3daafe3b4186f6b6457e0\n  mload(0x40)\n  mload(0x40)\n  dup1\n  swap2\n  sub\n  swap1\n  log3\n    /* \"@openzeppelin/contracts/access/Ownable.sol\":2975:3099  {... */\n  pop\n    /* \"@openzeppelin/contracts/access/Ownable.sol\":2912:3099  function _transferOwnership(address newOwner) internal virtual {... */\n  pop\n  jump\t// out\n    /* \"#utility.yul\":88:205   */\ntag_24:\n    /* \"#utility.yul\":197:198   */\n  0x00\n    /* \"#utility.yul\":194:195   */\n  dup1\n    /* \"#utility.yul\":187:199   */\n  revert\n    /* \"#utility.yul\":334:460   */\ntag_26:\n    /* \"#utility.yul\":371:378   */\n  0x00\n    /* \"#utility.yul\":411:453   */\n  0xffffffffffffffffffffffffffffffffffffffff\n    /* \"#utility.yul\":404:409   */\n  dup3\n    /* \"#utility.yul\":400:454   */\n  and\n    /* \"#utility.yul\":389:454   */\n  swap1\n  pop\n    /* \"#utility.yul\":334:460   */\n  swap2\n  swap1\n  pop\n  jump\t// out\n    /* \"#utility.yul\":466:562   */\ntag_27:\n    /* \"#utility.yul\":503:510   */\n  0x00\n    /* \"#utility.yul\":532:556   */\n  tag_42\n    /* \"#utility.yul\":550:555   */\n  dup3\n    /* \"#utility.yul\":532:556   */\n  tag_26\n  jump\t// in\ntag_42:\n    /* \"#utility.yul\":521:556   */\n  swap1\n  pop\n    /* \"#utility.yul\":466:562   */\n  swap2\n  swap1\n  pop\n  jump\t// out\n    /* \"#utility.yul\":568:690   */\ntag_28:\n    /* \"#utility.yul\":641:665   */\n  tag_44\n    /* \"#utility.yul\":659:664   */\n  dup2\n    /* \"#utility.yul\":641:665   */\n  tag_27\n  jump\t// in\ntag_44:\n    /* \"#utility.yul\":634:639   */\n  dup2\n    /* \"#utility.yul\":631:666   */\n  eq\n    /* \"#utility.yul\":621:684   */\n  tag_45\n  jumpi\n    /* \"#utility.yul\":680:681   */\n  0x00\n    /* \"#utility.yul\":677:678   */\n  dup1\n    /* \"#utility.yul\":670:682   */\n  revert\n    /* \"#utility.yul\":621:684   */\ntag_45:\n    /* \"#utility.yul\":568:690   */\n  pop\n  jump\t// out\n    /* \"#utility.yul\":696:839   */\ntag_29:\n    /* \"#utility.yul\":753:758   */\n  0x00\n    /* \"#utility.yul\":784:790   */\n  dup2\n    /* \"#utility.yul\":778:791   */\n  mload\n    /* \"#utility.yul\":769:791   */\n  swap1\n  pop\n    /* \"#utility.yul\":800:833   */\n  tag_47\n    /* \"#utility.yul\":827:832   */\n  dup2\n    /* \"#utility.yul\":800:833   */\n  tag_28\n  jump\t// in\ntag_47:\n    /* \"#utility.yul\":696:839   */\n  swap3\n  swap2\n  pop\n  pop\n  jump\t// out\n    /* \"#utility.yul\":845:1352   */\ntag_3:\n    /* \"#utility.yul\":924:930   */\n  0x00\n    /* \"#utility.yul\":932:938   */\n  dup1\n    /* \"#utility.yul\":981:983   */\n  0x40\n    /* \"#utility.yul\":969:978   */\n  dup4\n    /* \"#utility.yul\":960:967   */\n  dup6\n    /* \"#utility.yul\":956:979   */\n  sub\n    /* \"#utility.yul\":952:984   */\n  slt\n    /* \"#utility.yul\":949:1068   */\n  iszero\n  tag_49\n  jumpi\n    /* \"#utility.yul\":987:1066   */\n  tag_50\n  tag_24\n  jump\t// in\ntag_50:\n    /* \"#utility.yul\":949:1068   */\ntag_49:\n    /* \"#utility.yul\":1107:1108   */\n  0x00\n    /* \"#utility.yul\":1132:1196   */\n  tag_51\n    /* \"#utility.yul\":1188:1195   */\n  dup6\n    /* \"#utility.yul\":1179:1185   */\n  dup3\n    /* \"#utility.yul\":1168:1177   */\n  dup7\n    /* \"#utility.yul\":1164:1186   */\n  add\n    /* \"#utility.yul\":1132:1196   */\n  tag_29\n  jump\t// in\ntag_51:\n    /* \"#utility.yul\":1122:1196   */\n  swap3\n  pop\n    /* \"#utility.yul\":1078:1206   */\n  pop\n    /* \"#utility.yul\":1245:1247   */\n  0x20\n    /* \"#utility.yul\":1271:1335   */\n  tag_52\n    /* \"#utility.yul\":1327:1334   */\n  dup6\n    /* \"#utility.yul\":1318:1324   */\n  dup3\n    /* \"#utility.yul\":1307:1316   */\n  dup7\n    /* \"#utility.yul\":1303:1325   */\n  add\n    /* \"#utility.yul\":1271:1335   */\n  tag_29\n  jump\t// in\ntag_52:\n    /* \"#utility.yul\":1261:1335   */\n  swap2\n  pop\n    /* \"#utility.yul\":1216:1345   */\n  pop\n    /* \"#utility.yul\":845:1352   */\n  swap3\n  pop\n  swap3\n  swap1\n  pop\n  jump\t// out\n    /* \"#utility.yul\":1358:1476   */\ntag_30:\n    /* \"#utility.yul\":1445:1469   */\n  tag_54\n    /* \"#utility.yul\":1463:1468   */\n  dup2\n    /* \"#utility.yul\":1445:1469   */\n  tag_27\n  jump\t// in\ntag_54:\n    /* \"#utility.yul\":1440:1443   */\n  dup3\n    /* \"#utility.yul\":1433:1470   */\n  mstore\n    /* \"#utility.yul\":1358:1476   */\n  pop\n  pop\n  jump\t// out\n    /* \"#utility.yul\":1482:1704   */\ntag_10:\n    /* \"#utility.yul\":1575:1579   */\n  0x00\n    /* \"#utility.yul\":1613:1615   */\n  0x20\n    /* \"#utility.yul\":1602:1611   */\n  dup3\n    /* \"#utility.yul\":1598:1616   */\n  add\n    /* \"#utility.yul\":1590:1616   */\n  swap1\n  pop\n    /* \"#utility.yul\":1626:1697   */\n  tag_56\n    /* \"#utility.yul\":1694:1695   */\n  0x00\n    /* \"#utility.yul\":1683:1692   */\n  dup4\n    /* \"#utility.yul\":1679:1696   */\n  add\n    /* \"#utility.yul\":1670:1676   */\n  dup5\n    /* \"#utility.yul\":1626:1697   */\n  tag_30\n  jump\t// in\ntag_56:\n    /* \"#utility.yul\":1482:1704   */\n  swap3\n  swap2\n  pop\n  pop\n  jump\t// out\n    /* \"#utility.yul\":1710:1879   */\ntag_31:\n    /* \"#utility.yul\":1794:1805   */\n  0x00\n    /* \"#utility.yul\":1828:1834   */\n  dup3\n    /* \"#utility.yul\":1823:1826   */\n  dup3\n    /* \"#utility.yul\":1816:1835   */\n  mstore\n    /* \"#utility.yul\":1868:1872   */\n  0x20\n    /* \"#utility.yul\":1863:1866   */\n  dup3\n    /* \"#utility.yul\":1859:1873   */\n  add\n    /* \"#utility.yul\":1844:1873   */\n  swap1\n  pop\n    /* \"#utility.yul\":1710:1879   */\n  swap3\n  swap2\n  pop\n  pop\n  jump\t// out\n    /* \"#utility.yul\":1885:2055   */\ntag_32:\n    /* \"#utility.yul\":2025:2047   */\n  0x496e76616c6964204d696e74436f6e7472616374000000000000000000000000\n    /* \"#utility.yul\":2021:2022   */\n  0x00\n    /* \"#utility.yul\":2013:2019   */\n  dup3\n    /* \"#utility.yul\":2009:2023   */\n  add\n    /* \"#utility.yul\":2002:2048   */\n  mstore\n    /* \"#utility.yul\":1885:2055   */\n  pop\n  jump\t// out\n    /* \"#utility.yul\":2061:2427   */\ntag_33:\n    /* \"#utility.yul\":2203:2206   */\n  0x00\n    /* \"#utility.yul\":2224:2291   */\n  tag_60\n    /* \"#utility.yul\":2288:2290   */\n  0x14\n    /* \"#utility.yul\":2283:2286   */\n  dup4\n    /* \"#utility.yul\":2224:2291   */\n  tag_31\n  jump\t// in\ntag_60:\n    /* \"#utility.yul\":2217:2291   */\n  swap2\n  pop\n    /* \"#utility.yul\":2300:2393   */\n  tag_61\n    /* \"#utility.yul\":2389:2392   */\n  dup3\n    /* \"#utility.yul\":2300:2393   */\n  tag_32\n  jump\t// in\ntag_61:\n    /* \"#utility.yul\":2418:2420   */\n  0x20\n    /* \"#utility.yul\":2413:2416   */\n  dup3\n    /* \"#utility.yul\":2409:2421   */\n  add\n    /* \"#utility.yul\":2402:2421   */\n  swap1\n  pop\n    /* \"#utility.yul\":2061:2427   */\n  swap2\n  swap1\n  pop\n  jump\t// out\n    /* \"#utility.yul\":2433:2852   */\ntag_17:\n    /* \"#utility.yul\":2599:2603   */\n  0x00\n    /* \"#utility.yul\":2637:2639   */\n  0x20\n    /* \"#utility.yul\":2626:2635   */\n  dup3\n    /* \"#utility.yul\":2622:2640   */\n  add\n    /* \"#utility.yul\":2614:2640   */\n  swap1\n  pop\n    /* \"#utility.yul\":2686:2695   */\n  dup2\n    /* \"#utility.yul\":2680:2684   */\n  dup2\n    /* \"#utility.yul\":2676:2696   */\n  sub\n    /* \"#utility.yul\":2672:2673   */\n  0x00\n    /* \"#utility.yul\":2661:2670   */\n  dup4\n    /* \"#utility.yul\":2657:2674   */\n  add\n    /* \"#utility.yul\":2650:2697   */\n  mstore\n    /* \"#utility.yul\":2714:2845   */\n  tag_63\n    /* \"#utility.yul\":2840:2844   */\n  dup2\n    /* \"#utility.yul\":2714:2845   */\n  tag_33\n  jump\t// in\ntag_63:\n    /* \"#utility.yul\":2706:2845   */\n  swap1\n  pop\n    /* \"#utility.yul\":2433:2852   */\n  swap2\n  swap1\n  pop\n  jump\t// out\n    /* \"#utility.yul\":2858:3032   */\ntag_34:\n    /* \"#utility.yul\":2998:3024   */\n  0x496e76616c6964204f776e657273686970436f6e74726f6c0000000000000000\n    /* \"#utility.yul\":2994:2995   */\n  0x00\n    /* \"#utility.yul\":2986:2992   */\n  dup3\n    /* \"#utility.yul\":2982:2996   */\n  add\n    /* \"#utility.yul\":2975:3025   */\n  mstore\n    /* \"#utility.yul\":2858:3032   */\n  pop\n  jump\t// out\n    /* \"#utility.yul\":3038:3404   */\ntag_35:\n    /* \"#utility.yul\":3180:3183   */\n  0x00\n    /* \"#utility.yul\":3201:3268   */\n  tag_66\n    /* \"#utility.yul\":3265:3267   */\n  0x18\n    /* \"#utility.yul\":3260:3263   */\n  dup4\n    /* \"#utility.yul\":3201:3268   */\n  tag_31\n  jump\t// in\ntag_66:\n    /* \"#utility.yul\":3194:3268   */\n  swap2\n  pop\n    /* \"#utility.yul\":3277:3370   */\n  tag_67\n    /* \"#utility.yul\":3366:3369   */\n  dup3\n    /* \"#utility.yul\":3277:3370   */\n  tag_34\n  jump\t// in\ntag_67:\n    /* \"#utility.yul\":3395:3397   */\n  0x20\n    /* \"#utility.yul\":3390:3393   */\n  dup3\n    /* \"#utility.yul\":3386:3398   */\n  add\n    /* \"#utility.yul\":3379:3398   */\n  swap1\n  pop\n    /* \"#utility.yul\":3038:3404   */\n  swap2\n  swap1\n  pop\n  jump\t// out\n    /* \"#utility.yul\":3410:3829   */\ntag_20:\n    /* \"#utility.yul\":3576:3580   */\n  0x00\n    /* \"#utility.yul\":3614:3616   */\n  0x20\n    /* \"#utility.yul\":3603:3612   */\n  dup3\n    /* \"#utility.yul\":3599:3617   */\n  add\n    /* \"#utility.yul\":3591:3617   */\n  swap1\n  pop\n    /* \"#utility.yul\":3663:3672   */\n  dup2\n    /* \"#utility.yul\":3657:3661   */\n  dup2\n    /* \"#utility.yul\":3653:3673   */\n  sub\n    /* \"#utility.yul\":3649:3650   */\n  0x00\n    /* \"#utility.yul\":3638:3647   */\n  dup4\n    /* \"#utility.yul\":3634:3651   */\n  add\n    /* \"#utility.yul\":3627:3674   */\n  mstore\n    /* \"#utility.yul\":3691:3822   */\n  tag_69\n    /* \"#utility.yul\":3817:3821   */\n  dup2\n    /* \"#utility.yul\":3691:3822   */\n  tag_35\n  jump\t// in\ntag_69:\n    /* \"#utility.yul\":3683:3822   */\n  swap1\n  pop\n    /* \"#utility.yul\":3410:3829   */\n  swap2\n  swap1\n  pop\n  jump\t// out\n    /* \"contracts/OpenSale.sol\":858:3869  contract OpenSale is Ownable, ReentrancyGuard {... */\ntag_21:\n  dataSize(sub_0)\n  dup1\n  dataOffset(sub_0)\n  0x00\n  codecopy\n  0x00\n  return\nstop\n\nsub_0: assembly {\n        /* \"contracts/OpenSale.sol\":858:3869  contract OpenSale is Ownable, ReentrancyGuard {... */\n      mstore(0x40, 0x80)\n      jumpi(tag_1, lt(calldatasize, 0x04))\n      shr(0xe0, calldataload(0x00))\n      dup1\n      0xd0b6b6db\n      gt\n      tag_12\n      jumpi\n      dup1\n      0xd0b6b6db\n      eq\n      tag_7\n      jumpi\n      dup1\n      0xde74e57b\n      eq\n      tag_8\n      jumpi\n      dup1\n      0xe80d7fec\n      eq\n      tag_9\n      jumpi\n      dup1\n      0xefef39a1\n      eq\n      tag_10\n      jumpi\n      dup1\n      0xf2fde38b\n      eq\n      tag_11\n      jumpi\n      jump(tag_1)\n    tag_12:\n      dup1\n      0x107a274a\n      eq\n      tag_2\n      jumpi\n      dup1\n      0x305a67a8\n      eq\n      tag_3\n      jumpi\n      dup1\n      0x715018a6\n      eq\n      tag_4\n      jumpi\n      dup1\n      0x8da5cb5b\n      eq\n      tag_5\n      jumpi\n      dup1\n      0xab80eee4\n      eq\n      tag_6\n      jumpi\n    tag_1:\n      0x00\n      dup1\n      revert\n        /* \"contracts/OpenSale.sol\":3747:3866  function getListing(uint256 tokenId) external view returns (Listing memory) {... */\n    tag_2:\n      callvalue\n      dup1\n      iszero\n      tag_13\n      jumpi\n      0x00\n      dup1\n      revert\n    tag_13:\n      pop\n      tag_14\n      0x04\n      dup1\n      calldatasize\n      sub\n      dup2\n      add\n      swap1\n      tag_15\n      swap2\n      swap1\n      tag_16\n      jump\t// in\n    tag_15:\n      tag_17\n      jump\t// in\n    tag_14:\n      mload(0x40)\n      tag_18\n      swap2\n      swap1\n      tag_19\n      jump\t// in\n    tag_18:\n      mload(0x40)\n      dup1\n      swap2\n      sub\n      swap1\n      return\n        /* \"contracts/OpenSale.sol\":3294:3559  function cancelListing(uint256 tokenId) external {... */\n    tag_3:\n      callvalue\n      dup1\n      iszero\n      tag_20\n      jumpi\n      0x00\n      dup1\n      revert\n    tag_20:\n      pop\n      tag_21\n      0x04\n      dup1\n      calldatasize\n      sub\n      dup2\n      add\n      swap1\n      tag_22\n      swap2\n      swap1\n      tag_16\n      jump\t// in\n    tag_22:\n      tag_23\n      jump\t// in\n    tag_21:\n      stop\n        /* \"@openzeppelin/contracts/access/Ownable.sol\":2293:2394  function renounceOwnership() public virtual onlyOwner {... */\n    tag_4:\n      callvalue\n      dup1\n      iszero\n      tag_24\n      jumpi\n      0x00\n      dup1\n      revert\n    tag_24:\n      pop\n      tag_25\n      tag_26\n      jump\t// in\n    tag_25:\n      stop\n        /* \"@openzeppelin/contracts/access/Ownable.sol\":1638:1723  function owner() public view virtual returns (address) {... */\n    tag_5:\n      callvalue\n      dup1\n      iszero\n      tag_27\n      jumpi\n      0x00\n      dup1\n      revert\n    tag_27:\n      pop\n      tag_28\n      tag_29\n      jump\t// in\n    tag_28:\n      mload(0x40)\n      tag_30\n      swap2\n      swap1\n      tag_31\n      jump\t// in\n    tag_30:\n      mload(0x40)\n      dup1\n      swap2\n      sub\n      swap1\n      return\n        /* \"contracts/OpenSale.sol\":1129:1170  IOwnershipControl public ownershipControl */\n    tag_6:\n      callvalue\n      dup1\n      iszero\n      tag_32\n      jumpi\n      0x00\n      dup1\n      revert\n    tag_32:\n      pop\n      tag_33\n      tag_34\n      jump\t// in\n    tag_33:\n      mload(0x40)\n      tag_35\n      swap2\n      swap1\n      tag_36\n      jump\t// in\n    tag_35:\n      mload(0x40)\n      dup1\n      swap2\n      sub\n      swap1\n      return\n        /* \"contracts/OpenSale.sol\":1089:1122  IMintContract public mintContract */\n    tag_7:\n      callvalue\n      dup1\n      iszero\n      tag_37\n      jumpi\n      0x00\n      dup1\n      revert\n    tag_37:\n      pop\n      tag_38\n      tag_39\n      jump\t// in\n    tag_38:\n      mload(0x40)\n      tag_40\n      swap2\n      swap1\n      tag_41\n      jump\t// in\n    tag_40:\n      mload(0x40)\n      dup1\n      swap2\n      sub\n      swap1\n      return\n        /* \"contracts/OpenSale.sol\":1037:1080  mapping(uint256 => Listing) public listings */\n    tag_8:\n      callvalue\n      dup1\n      iszero\n      tag_42\n      jumpi\n      0x00\n      dup1\n      revert\n    tag_42:\n      pop\n      tag_43\n      0x04\n      dup1\n      calldatasize\n      sub\n      dup2\n      add\n      swap1\n      tag_44\n      swap2\n      swap1\n      tag_16\n      jump\t// in\n    tag_44:\n      tag_45\n      jump\t// in\n    tag_43:\n      mload(0x40)\n      tag_46\n      swap3\n      swap2\n      swap1\n      tag_47\n      jump\t// in\n    tag_46:\n      mload(0x40)\n      dup1\n      swap2\n      sub\n      swap1\n      return\n        /* \"contracts/OpenSale.sol\":2051:2437  function listForSale(uint256 tokenId, uint256 price) external {... */\n    tag_9:\n      callvalue\n      dup1\n      iszero\n      tag_48\n      jumpi\n      0x00\n      dup1\n      revert\n    tag_48:\n      pop\n      tag_49\n      0x04\n      dup1\n      calldatasize\n      sub\n      dup2\n      add\n      swap1\n      tag_50\n      swap2\n      swap1\n      tag_51\n      jump\t// in\n    tag_50:\n      tag_52\n      jump\t// in\n    tag_49:\n      stop\n        /* \"contracts/OpenSale.sol\":2550:3188  function purchase(uint256 tokenId) external payable nonReentrant {... */\n    tag_10:\n      tag_53\n      0x04\n      dup1\n      calldatasize\n      sub\n      dup2\n      add\n      swap1\n      tag_54\n      swap2\n      swap1\n      tag_16\n      jump\t// in\n    tag_54:\n      tag_55\n      jump\t// in\n    tag_53:\n      stop\n        /* \"@openzeppelin/contracts/access/Ownable.sol\":2543:2758  function transferOwnership(address newOwner) public virtual onlyOwner {... */\n    tag_11:\n      callvalue\n      dup1\n      iszero\n      tag_56\n      jumpi\n      0x00\n      dup1\n      revert\n    tag_56:\n      pop\n      tag_57\n      0x04\n      dup1\n      calldatasize\n      sub\n      dup2\n      add\n      swap1\n      tag_58\n      swap2\n      swap1\n      tag_59\n      jump\t// in\n    tag_58:\n      tag_60\n      jump\t// in\n    tag_57:\n      stop\n        /* \"contracts/OpenSale.sol\":3747:3866  function getListing(uint256 tokenId) external view returns (Listing memory) {... */\n    tag_17:\n        /* \"contracts/OpenSale.sol\":3807:3821  Listing memory */\n      tag_61\n      tag_62\n      jump\t// in\n    tag_61:\n        /* \"contracts/OpenSale.sol\":3841:3849  listings */\n      0x02\n        /* \"contracts/OpenSale.sol\":3841:3858  listings[tokenId] */\n      0x00\n        /* \"contracts/OpenSale.sol\":3850:3857  tokenId */\n      dup4\n        /* \"contracts/OpenSale.sol\":3841:3858  listings[tokenId] */\n      dup2\n      mstore\n      0x20\n      add\n      swap1\n      dup2\n      mstore\n      0x20\n      add\n      0x00\n      keccak256\n        /* \"contracts/OpenSale.sol\":3834:3858  return listings[tokenId] */\n      mload(0x40)\n      dup1\n      0x40\n      add\n      0x40\n      mstore\n      swap1\n      dup2\n      0x00\n      dup3\n      add\n      sload\n      dup2\n      mstore\n      0x20\n      add\n      0x01\n      dup3\n      add\n      0x00\n      swap1\n      sload\n      swap1\n      0x0100\n      exp\n      swap1\n      div\n      0xffffffffffffffffffffffffffffffffffffffff\n      and\n      0xffffffffffffffffffffffffffffffffffffffff\n      and\n      0xffffffffffffffffffffffffffffffffffffffff\n      and\n      dup2\n      mstore\n      pop\n      pop\n      swap1\n      pop\n        /* \"contracts/OpenSale.sol\":3747:3866  function getListing(uint256 tokenId) external view returns (Listing memory) {... */\n      swap2\n      swap1\n      pop\n      jump\t// out\n        /* \"contracts/OpenSale.sol\":3294:3559  function cancelListing(uint256 tokenId) external {... */\n    tag_23:\n        /* \"contracts/OpenSale.sol\":3354:3376  Listing memory listing */\n      0x00\n        /* \"contracts/OpenSale.sol\":3379:3387  listings */\n      0x02\n        /* \"contracts/OpenSale.sol\":3379:3396  listings[tokenId] */\n      0x00\n        /* \"contracts/OpenSale.sol\":3388:3395  tokenId */\n      dup4\n        /* \"contracts/OpenSale.sol\":3379:3396  listings[tokenId] */\n      dup2\n      mstore\n      0x20\n      add\n      swap1\n      dup2\n      mstore\n      0x20\n      add\n      0x00\n      keccak256\n        /* \"contracts/OpenSale.sol\":3354:3396  Listing memory listing = listings[tokenId] */\n      mload(0x40)\n      dup1\n      0x40\n      add\n      0x40\n      mstore\n      swap1\n      dup2\n      0x00\n      dup3\n      add\n      sload\n      dup2\n      mstore\n      0x20\n      add\n      0x01\n      dup3\n      add\n      0x00\n      swap1\n      sload\n      swap1\n      0x0100\n      exp\n      swap1\n      div\n      0xffffffffffffffffffffffffffffffffffffffff\n      and\n      0xffffffffffffffffffffffffffffffffffffffff\n      and\n      0xffffffffffffffffffffffffffffffffffffffff\n      and\n      dup2\n      mstore\n      pop\n      pop\n      swap1\n      pop\n        /* \"contracts/OpenSale.sol\":3433:3443  msg.sender */\n      caller\n        /* \"contracts/OpenSale.sol\":3415:3443  listing.seller == msg.sender */\n      0xffffffffffffffffffffffffffffffffffffffff\n      and\n        /* \"contracts/OpenSale.sol\":3415:3422  listing */\n      dup2\n        /* \"contracts/OpenSale.sol\":3415:3429  listing.seller */\n      0x20\n      add\n      mload\n        /* \"contracts/OpenSale.sol\":3415:3443  listing.seller == msg.sender */\n      0xffffffffffffffffffffffffffffffffffffffff\n      and\n      eq\n        /* \"contracts/OpenSale.sol\":3407:3470  require(listing.seller == msg.sender, \"You are not the seller\") */\n      tag_65\n      jumpi\n      mload(0x40)\n      0x08c379a000000000000000000000000000000000000000000000000000000000\n      dup2\n      mstore\n      0x04\n      add\n      tag_66\n      swap1\n      tag_67\n      jump\t// in\n    tag_66:\n      mload(0x40)\n      dup1\n      swap2\n      sub\n      swap1\n      revert\n    tag_65:\n        /* \"contracts/OpenSale.sol\":3488:3496  listings */\n      0x02\n        /* \"contracts/OpenSale.sol\":3488:3505  listings[tokenId] */\n      0x00\n        /* \"contracts/OpenSale.sol\":3497:3504  tokenId */\n      dup4\n        /* \"contracts/OpenSale.sol\":3488:3505  listings[tokenId] */\n      dup2\n      mstore\n      0x20\n      add\n      swap1\n      dup2\n      mstore\n      0x20\n      add\n      0x00\n      keccak256\n      0x00\n        /* \"contracts/OpenSale.sol\":3481:3505  delete listings[tokenId] */\n      dup1\n      dup3\n      add\n      0x00\n      swap1\n      sstore\n      0x01\n      dup3\n      add\n      exp(0x0100, 0x00)\n      dup2\n      sload\n      swap1\n      0xffffffffffffffffffffffffffffffffffffffff\n      mul\n      not\n      and\n      swap1\n      sstore\n      pop\n      pop\n        /* \"contracts/OpenSale.sol\":3540:3550  msg.sender */\n      caller\n        /* \"contracts/OpenSale.sol\":3521:3551  Cancelled(tokenId, msg.sender) */\n      0xffffffffffffffffffffffffffffffffffffffff\n      and\n        /* \"contracts/OpenSale.sol\":3531:3538  tokenId */\n      dup3\n        /* \"contracts/OpenSale.sol\":3521:3551  Cancelled(tokenId, msg.sender) */\n      0x26deca31ff8139a06c52453ce8985d34f7648a6d9af1d283c4063d052c355a0f\n      mload(0x40)\n      mload(0x40)\n      dup1\n      swap2\n      sub\n      swap1\n      log3\n        /* \"contracts/OpenSale.sol\":3343:3559  {... */\n      pop\n        /* \"contracts/OpenSale.sol\":3294:3559  function cancelListing(uint256 tokenId) external {... */\n      pop\n      jump\t// out\n        /* \"@openzeppelin/contracts/access/Ownable.sol\":2293:2394  function renounceOwnership() public virtual onlyOwner {... */\n    tag_26:\n        /* \"@openzeppelin/contracts/access/Ownable.sol\":1531:1544  _checkOwner() */\n      tag_69\n        /* \"@openzeppelin/contracts/access/Ownable.sol\":1531:1542  _checkOwner */\n      tag_70\n        /* \"@openzeppelin/contracts/access/Ownable.sol\":1531:1544  _checkOwner() */\n      jump\t// in\n    tag_69:\n        /* \"@openzeppelin/contracts/access/Ownable.sol\":2357:2387  _transferOwnership(address(0)) */\n      tag_72\n        /* \"@openzeppelin/contracts/access/Ownable.sol\":2384:2385  0 */\n      0x00\n        /* \"@openzeppelin/contracts/access/Ownable.sol\":2357:2375  _transferOwnership */\n      tag_73\n        /* \"@openzeppelin/contracts/access/Ownable.sol\":2357:2387  _transferOwnership(address(0)) */\n      jump\t// in\n    tag_72:\n        /* \"@openzeppelin/contracts/access/Ownable.sol\":2293:2394  function renounceOwnership() public virtual onlyOwner {... */\n      jump\t// out\n        /* \"@openzeppelin/contracts/access/Ownable.sol\":1638:1723  function owner() public view virtual returns (address) {... */\n    tag_29:\n        /* \"@openzeppelin/contracts/access/Ownable.sol\":1684:1691  address */\n      0x00\n        /* \"@openzeppelin/contracts/access/Ownable.sol\":1710:1716  _owner */\n      dup1\n      0x00\n      swap1\n      sload\n      swap1\n      0x0100\n      exp\n      swap1\n      div\n      0xffffffffffffffffffffffffffffffffffffffff\n      and\n        /* \"@openzeppelin/contracts/access/Ownable.sol\":1703:1716  return _owner */\n      swap1\n      pop\n        /* \"@openzeppelin/contracts/access/Ownable.sol\":1638:1723  function owner() public view virtual returns (address) {... */\n      swap1\n      jump\t// out\n        /* \"contracts/OpenSale.sol\":1129:1170  IOwnershipControl public ownershipControl */\n    tag_34:\n      0x04\n      0x00\n      swap1\n      sload\n      swap1\n      0x0100\n      exp\n      swap1\n      div\n      0xffffffffffffffffffffffffffffffffffffffff\n      and\n      dup2\n      jump\t// out\n        /* \"contracts/OpenSale.sol\":1089:1122  IMintContract public mintContract */\n    tag_39:\n      0x03\n      0x00\n      swap1\n      sload\n      swap1\n      0x0100\n      exp\n      swap1\n      div\n      0xffffffffffffffffffffffffffffffffffffffff\n      and\n      dup2\n      jump\t// out\n        /* \"contracts/OpenSale.sol\":1037:1080  mapping(uint256 => Listing) public listings */\n    tag_45:\n      mstore(0x20, 0x02)\n      dup1\n      0x00\n      mstore\n      keccak256(0x00, 0x40)\n      0x00\n      swap2\n      pop\n      swap1\n      pop\n      dup1\n      0x00\n      add\n      sload\n      swap1\n      dup1\n      0x01\n      add\n      0x00\n      swap1\n      sload\n      swap1\n      0x0100\n      exp\n      swap1\n      div\n      0xffffffffffffffffffffffffffffffffffffffff\n      and\n      swap1\n      pop\n      dup3\n      jump\t// out\n        /* \"contracts/OpenSale.sol\":2051:2437  function listForSale(uint256 tokenId, uint256 price) external {... */\n    tag_52:\n        /* \"contracts/OpenSale.sol\":2140:2141  0 */\n      0x00\n        /* \"contracts/OpenSale.sol\":2132:2137  price */\n      dup2\n        /* \"contracts/OpenSale.sol\":2132:2141  price > 0 */\n      gt\n        /* \"contracts/OpenSale.sol\":2124:2174  require(price > 0, \"Price must be greater than 0\") */\n      tag_76\n      jumpi\n      mload(0x40)\n      0x08c379a000000000000000000000000000000000000000000000000000000000\n      dup2\n      mstore\n      0x04\n      add\n      tag_77\n      swap1\n      tag_78\n      jump\t// in\n    tag_77:\n      mload(0x40)\n      dup1\n      swap2\n      sub\n      swap1\n      revert\n    tag_76:\n        /* \"contracts/OpenSale.sol\":2250:2260  msg.sender */\n      caller\n        /* \"contracts/OpenSale.sol\":2207:2260  ownershipControl.verifiedOwner(tokenId) == msg.sender */\n      0xffffffffffffffffffffffffffffffffffffffff\n      and\n        /* \"contracts/OpenSale.sol\":2207:2223  ownershipControl */\n      0x04\n      0x00\n      swap1\n      sload\n      swap1\n      0x0100\n      exp\n      swap1\n      div\n      0xffffffffffffffffffffffffffffffffffffffff\n      and\n        /* \"contracts/OpenSale.sol\":2207:2237  ownershipControl.verifiedOwner */\n      0xffffffffffffffffffffffffffffffffffffffff\n      and\n      0x5a9931\n        /* \"contracts/OpenSale.sol\":2238:2245  tokenId */\n      dup5\n        /* \"contracts/OpenSale.sol\":2207:2246  ownershipControl.verifiedOwner(tokenId) */\n      mload(0x40)\n      dup3\n      0xffffffff\n      and\n      0xe0\n      shl\n      dup2\n      mstore\n      0x04\n      add\n      tag_79\n      swap2\n      swap1\n      tag_80\n      jump\t// in\n    tag_79:\n      0x20\n      mload(0x40)\n      dup1\n      dup4\n      sub\n      dup2\n      dup7\n      gas\n      staticcall\n      iszero\n      dup1\n      iszero\n      tag_82\n      jumpi\n      returndatasize\n      0x00\n      dup1\n      returndatacopy\n      revert(0x00, returndatasize)\n    tag_82:\n      pop\n      pop\n      pop\n      pop\n      mload(0x40)\n      returndatasize\n      not(0x1f)\n      0x1f\n      dup3\n      add\n      and\n      dup3\n      add\n      dup1\n      0x40\n      mstore\n      pop\n      dup2\n      add\n      swap1\n      tag_83\n      swap2\n      swap1\n      tag_84\n      jump\t// in\n    tag_83:\n        /* \"contracts/OpenSale.sol\":2207:2260  ownershipControl.verifiedOwner(tokenId) == msg.sender */\n      0xffffffffffffffffffffffffffffffffffffffff\n      and\n      eq\n        /* \"contracts/OpenSale.sol\":2185:2320  require(... */\n      tag_85\n      jumpi\n      mload(0x40)\n      0x08c379a000000000000000000000000000000000000000000000000000000000\n      dup2\n      mstore\n      0x04\n      add\n      tag_86\n      swap1\n      tag_87\n      jump\t// in\n    tag_86:\n      mload(0x40)\n      dup1\n      swap2\n      sub\n      swap1\n      revert\n    tag_85:\n        /* \"contracts/OpenSale.sol\":2353:2379  Listing(price, msg.sender) */\n      mload(0x40)\n      dup1\n      0x40\n      add\n      0x40\n      mstore\n      dup1\n        /* \"contracts/OpenSale.sol\":2361:2366  price */\n      dup3\n        /* \"contracts/OpenSale.sol\":2353:2379  Listing(price, msg.sender) */\n      dup2\n      mstore\n      0x20\n      add\n        /* \"contracts/OpenSale.sol\":2368:2378  msg.sender */\n      caller\n        /* \"contracts/OpenSale.sol\":2353:2379  Listing(price, msg.sender) */\n      0xffffffffffffffffffffffffffffffffffffffff\n      and\n      dup2\n      mstore\n      pop\n        /* \"contracts/OpenSale.sol\":2333:2341  listings */\n      0x02\n        /* \"contracts/OpenSale.sol\":2333:2350  listings[tokenId] */\n      0x00\n        /* \"contracts/OpenSale.sol\":2342:2349  tokenId */\n      dup5\n        /* \"contracts/OpenSale.sol\":2333:2350  listings[tokenId] */\n      dup2\n      mstore\n      0x20\n      add\n      swap1\n      dup2\n      mstore\n      0x20\n      add\n      0x00\n      keccak256\n        /* \"contracts/OpenSale.sol\":2333:2379  listings[tokenId] = Listing(price, msg.sender) */\n      0x00\n      dup3\n      add\n      mload\n      dup2\n      0x00\n      add\n      sstore\n      0x20\n      dup3\n      add\n      mload\n      dup2\n      0x01\n      add\n      exp(0x0100, 0x00)\n      dup2\n      sload\n      dup2\n      0xffffffffffffffffffffffffffffffffffffffff\n      mul\n      not\n      and\n      swap1\n      dup4\n      0xffffffffffffffffffffffffffffffffffffffff\n      and\n      mul\n      or\n      swap1\n      sstore\n      pop\n      swap1\n      pop\n      pop\n        /* \"contracts/OpenSale.sol\":2411:2421  msg.sender */\n      caller\n        /* \"contracts/OpenSale.sol\":2395:2429  Listed(tokenId, msg.sender, price) */\n      0xffffffffffffffffffffffffffffffffffffffff\n      and\n        /* \"contracts/OpenSale.sol\":2402:2409  tokenId */\n      dup3\n        /* \"contracts/OpenSale.sol\":2395:2429  Listed(tokenId, msg.sender, price) */\n      0x50955776c5778c3b7d968d86d8c51fb6b29a7a74c20866b533268e209fc08343\n        /* \"contracts/OpenSale.sol\":2423:2428  price */\n      dup4\n        /* \"contracts/OpenSale.sol\":2395:2429  Listed(tokenId, msg.sender, price) */\n      mload(0x40)\n      tag_88\n      swap2\n      swap1\n      tag_80\n      jump\t// in\n    tag_88:\n      mload(0x40)\n      dup1\n      swap2\n      sub\n      swap1\n      log3\n        /* \"contracts/OpenSale.sol\":2051:2437  function listForSale(uint256 tokenId, uint256 price) external {... */\n      pop\n      pop\n      jump\t// out\n        /* \"contracts/OpenSale.sol\":2550:3188  function purchase(uint256 tokenId) external payable nonReentrant {... */\n    tag_55:\n        /* \"@openzeppelin/contracts/security/ReentrancyGuard.sol\":2261:2282  _nonReentrantBefore() */\n      tag_90\n        /* \"@openzeppelin/contracts/security/ReentrancyGuard.sol\":2261:2280  _nonReentrantBefore */\n      tag_91\n        /* \"@openzeppelin/contracts/security/ReentrancyGuard.sol\":2261:2282  _nonReentrantBefore() */\n      jump\t// in\n    tag_90:\n        /* \"contracts/OpenSale.sol\":2626:2648  Listing memory listing */\n      0x00\n        /* \"contracts/OpenSale.sol\":2651:2659  listings */\n      0x02\n        /* \"contracts/OpenSale.sol\":2651:2668  listings[tokenId] */\n      0x00\n        /* \"contracts/OpenSale.sol\":2660:2667  tokenId */\n      dup4\n        /* \"contracts/OpenSale.sol\":2651:2668  listings[tokenId] */\n      dup2\n      mstore\n      0x20\n      add\n      swap1\n      dup2\n      mstore\n      0x20\n      add\n      0x00\n      keccak256\n        /* \"contracts/OpenSale.sol\":2626:2668  Listing memory listing = listings[tokenId] */\n      mload(0x40)\n      dup1\n      0x40\n      add\n      0x40\n      mstore\n      swap1\n      dup2\n      0x00\n      dup3\n      add\n      sload\n      dup2\n      mstore\n      0x20\n      add\n      0x01\n      dup3\n      add\n      0x00\n      swap1\n      sload\n      swap1\n      0x0100\n      exp\n      swap1\n      div\n      0xffffffffffffffffffffffffffffffffffffffff\n      and\n      0xffffffffffffffffffffffffffffffffffffffff\n      and\n      0xffffffffffffffffffffffffffffffffffffffff\n      and\n      dup2\n      mstore\n      pop\n      pop\n      swap1\n      pop\n        /* \"contracts/OpenSale.sol\":2703:2704  0 */\n      0x00\n        /* \"contracts/OpenSale.sol\":2687:2694  listing */\n      dup2\n        /* \"contracts/OpenSale.sol\":2687:2700  listing.price */\n      0x00\n      add\n      mload\n        /* \"contracts/OpenSale.sol\":2687:2704  listing.price > 0 */\n      gt\n        /* \"contracts/OpenSale.sol\":2679:2725  require(listing.price > 0, \"Token not listed\") */\n      tag_93\n      jumpi\n      mload(0x40)\n      0x08c379a000000000000000000000000000000000000000000000000000000000\n      dup2\n      mstore\n      0x04\n      add\n      tag_94\n      swap1\n      tag_95\n      jump\t// in\n    tag_94:\n      mload(0x40)\n      dup1\n      swap2\n      sub\n      swap1\n      revert\n    tag_93:\n        /* \"contracts/OpenSale.sol\":2757:2764  listing */\n      dup1\n        /* \"contracts/OpenSale.sol\":2757:2770  listing.price */\n      0x00\n      add\n      mload\n        /* \"contracts/OpenSale.sol\":2744:2753  msg.value */\n      callvalue\n        /* \"contracts/OpenSale.sol\":2744:2770  msg.value == listing.price */\n      eq\n        /* \"contracts/OpenSale.sol\":2736:2799  require(msg.value == listing.price, \"Incorrect payment amount\") */\n      tag_96\n      jumpi\n      mload(0x40)\n      0x08c379a000000000000000000000000000000000000000000000000000000000\n      dup2\n      mstore\n      0x04\n      add\n      tag_97\n      swap1\n      tag_98\n      jump\t// in\n    tag_97:\n      mload(0x40)\n      dup1\n      swap2\n      sub\n      swap1\n      revert\n    tag_96:\n        /* \"contracts/OpenSale.sol\":2884:2892  listings */\n      0x02\n        /* \"contracts/OpenSale.sol\":2884:2901  listings[tokenId] */\n      0x00\n        /* \"contracts/OpenSale.sol\":2893:2900  tokenId */\n      dup4\n        /* \"contracts/OpenSale.sol\":2884:2901  listings[tokenId] */\n      dup2\n      mstore\n      0x20\n      add\n      swap1\n      dup2\n      mstore\n      0x20\n      add\n      0x00\n      keccak256\n      0x00\n        /* \"contracts/OpenSale.sol\":2877:2901  delete listings[tokenId] */\n      dup1\n      dup3\n      add\n      0x00\n      swap1\n      sstore\n      0x01\n      dup3\n      add\n      exp(0x0100, 0x00)\n      dup2\n      sload\n      swap1\n      0xffffffffffffffffffffffffffffffffffffffff\n      mul\n      not\n      and\n      swap1\n      sstore\n      pop\n      pop\n        /* \"contracts/OpenSale.sol\":2961:2968  listing */\n      dup1\n        /* \"contracts/OpenSale.sol\":2961:2975  listing.seller */\n      0x20\n      add\n      mload\n        /* \"contracts/OpenSale.sol\":2953:2985  payable(listing.seller).transfer */\n      0xffffffffffffffffffffffffffffffffffffffff\n      and\n        /* \"contracts/OpenSale.sol\":2953:2996  payable(listing.seller).transfer(msg.value) */\n      0x08fc\n        /* \"contracts/OpenSale.sol\":2986:2995  msg.value */\n      callvalue\n        /* \"contracts/OpenSale.sol\":2953:2996  payable(listing.seller).transfer(msg.value) */\n      swap1\n      dup2\n      iszero\n      mul\n      swap1\n      mload(0x40)\n      0x00\n      mload(0x40)\n      dup1\n      dup4\n      sub\n      dup2\n      dup6\n      dup9\n      dup9\n      call\n      swap4\n      pop\n      pop\n      pop\n      pop\n      iszero\n      dup1\n      iszero\n      tag_100\n      jumpi\n      returndatasize\n      0x00\n      dup1\n      returndatacopy\n      revert(0x00, returndatasize)\n    tag_100:\n      pop\n        /* \"contracts/OpenSale.sol\":3064:3080  ownershipControl */\n      0x04\n      0x00\n      swap1\n      sload\n      swap1\n      0x0100\n      exp\n      swap1\n      div\n      0xffffffffffffffffffffffffffffffffffffffff\n      and\n        /* \"contracts/OpenSale.sol\":3064:3096  ownershipControl.transferProduct */\n      0xffffffffffffffffffffffffffffffffffffffff\n      and\n      0xe43059e5\n        /* \"contracts/OpenSale.sol\":3097:3104  tokenId */\n      dup4\n        /* \"contracts/OpenSale.sol\":3106:3116  msg.sender */\n      caller\n        /* \"contracts/OpenSale.sol\":3064:3117  ownershipControl.transferProduct(tokenId, msg.sender) */\n      mload(0x40)\n      dup4\n      0xffffffff\n      and\n      0xe0\n      shl\n      dup2\n      mstore\n      0x04\n      add\n      tag_101\n      swap3\n      swap2\n      swap1\n      tag_47\n      jump\t// in\n    tag_101:\n      0x00\n      mload(0x40)\n      dup1\n      dup4\n      sub\n      dup2\n      0x00\n      dup8\n      dup1\n      extcodesize\n      iszero\n      dup1\n      iszero\n      tag_102\n      jumpi\n      0x00\n      dup1\n      revert\n    tag_102:\n      pop\n      gas\n      call\n      iszero\n      dup1\n      iszero\n      tag_104\n      jumpi\n      returndatasize\n      0x00\n      dup1\n      returndatacopy\n      revert(0x00, returndatasize)\n    tag_104:\n      pop\n      pop\n      pop\n      pop\n        /* \"contracts/OpenSale.sol\":3154:3164  msg.sender */\n      caller\n        /* \"contracts/OpenSale.sol\":3135:3180  Purchased(tokenId, msg.sender, listing.price) */\n      0xffffffffffffffffffffffffffffffffffffffff\n      and\n        /* \"contracts/OpenSale.sol\":3145:3152  tokenId */\n      dup3\n        /* \"contracts/OpenSale.sol\":3135:3180  Purchased(tokenId, msg.sender, listing.price) */\n      0xfd51b2c9f55c42d2b72ac683526519563be02fc0107f034ff430c05185ff1b66\n        /* \"contracts/OpenSale.sol\":3166:3173  listing */\n      dup4\n        /* \"contracts/OpenSale.sol\":3166:3179  listing.price */\n      0x00\n      add\n      mload\n        /* \"contracts/OpenSale.sol\":3135:3180  Purchased(tokenId, msg.sender, listing.price) */\n      mload(0x40)\n      tag_105\n      swap2\n      swap1\n      tag_80\n      jump\t// in\n    tag_105:\n      mload(0x40)\n      dup1\n      swap2\n      sub\n      swap1\n      log3\n        /* \"contracts/OpenSale.sol\":2615:3188  {... */\n      pop\n        /* \"@openzeppelin/contracts/security/ReentrancyGuard.sol\":2303:2323  _nonReentrantAfter() */\n      tag_106\n        /* \"@openzeppelin/contracts/security/ReentrancyGuard.sol\":2303:2321  _nonReentrantAfter */\n      tag_107\n        /* \"@openzeppelin/contracts/security/ReentrancyGuard.sol\":2303:2323  _nonReentrantAfter() */\n      jump\t// in\n    tag_106:\n        /* \"contracts/OpenSale.sol\":2550:3188  function purchase(uint256 tokenId) external payable nonReentrant {... */\n      pop\n      jump\t// out\n        /* \"@openzeppelin/contracts/access/Ownable.sol\":2543:2758  function transferOwnership(address newOwner) public virtual onlyOwner {... */\n    tag_60:\n        /* \"@openzeppelin/contracts/access/Ownable.sol\":1531:1544  _checkOwner() */\n      tag_109\n        /* \"@openzeppelin/contracts/access/Ownable.sol\":1531:1542  _checkOwner */\n      tag_70\n        /* \"@openzeppelin/contracts/access/Ownable.sol\":1531:1544  _checkOwner() */\n      jump\t// in\n    tag_109:\n        /* \"@openzeppelin/contracts/access/Ownable.sol\":2647:2648  0 */\n      0x00\n        /* \"@openzeppelin/contracts/access/Ownable.sol\":2627:2649  newOwner == address(0) */\n      0xffffffffffffffffffffffffffffffffffffffff\n      and\n        /* \"@openzeppelin/contracts/access/Ownable.sol\":2627:2635  newOwner */\n      dup2\n        /* \"@openzeppelin/contracts/access/Ownable.sol\":2627:2649  newOwner == address(0) */\n      0xffffffffffffffffffffffffffffffffffffffff\n      and\n      sub\n        /* \"@openzeppelin/contracts/access/Ownable.sol\":2623:2714  if (newOwner == address(0)) {... */\n      tag_111\n      jumpi\n        /* \"@openzeppelin/contracts/access/Ownable.sol\":2700:2701  0 */\n      0x00\n        /* \"@openzeppelin/contracts/access/Ownable.sol\":2672:2703  OwnableInvalidOwner(address(0)) */\n      mload(0x40)\n      0x1e4fbdf700000000000000000000000000000000000000000000000000000000\n      dup2\n      mstore\n      0x04\n      add\n      tag_112\n      swap2\n      swap1\n      tag_31\n      jump\t// in\n    tag_112:\n      mload(0x40)\n      dup1\n      swap2\n      sub\n      swap1\n      revert\n        /* \"@openzeppelin/contracts/access/Ownable.sol\":2623:2714  if (newOwner == address(0)) {... */\n    tag_111:\n        /* \"@openzeppelin/contracts/access/Ownable.sol\":2723:2751  _transferOwnership(newOwner) */\n      tag_113\n        /* \"@openzeppelin/contracts/access/Ownable.sol\":2742:2750  newOwner */\n      dup2\n        /* \"@openzeppelin/contracts/access/Ownable.sol\":2723:2741  _transferOwnership */\n      tag_73\n        /* \"@openzeppelin/contracts/access/Ownable.sol\":2723:2751  _transferOwnership(newOwner) */\n      jump\t// in\n    tag_113:\n        /* \"@openzeppelin/contracts/access/Ownable.sol\":2543:2758  function transferOwnership(address newOwner) public virtual onlyOwner {... */\n      pop\n      jump\t// out\n        /* \"@openzeppelin/contracts/access/Ownable.sol\":1796:1958  function _checkOwner() internal view virtual {... */\n    tag_70:\n        /* \"@openzeppelin/contracts/access/Ownable.sol\":1866:1878  _msgSender() */\n      tag_115\n        /* \"@openzeppelin/contracts/access/Ownable.sol\":1866:1876  _msgSender */\n      tag_116\n        /* \"@openzeppelin/contracts/access/Ownable.sol\":1866:1878  _msgSender() */\n      jump\t// in\n    tag_115:\n        /* \"@openzeppelin/contracts/access/Ownable.sol\":1855:1878  owner() != _msgSender() */\n      0xffffffffffffffffffffffffffffffffffffffff\n      and\n        /* \"@openzeppelin/contracts/access/Ownable.sol\":1855:1862  owner() */\n      tag_117\n        /* \"@openzeppelin/contracts/access/Ownable.sol\":1855:1860  owner */\n      tag_29\n        /* \"@openzeppelin/contracts/access/Ownable.sol\":1855:1862  owner() */\n      jump\t// in\n    tag_117:\n        /* \"@openzeppelin/contracts/access/Ownable.sol\":1855:1878  owner() != _msgSender() */\n      0xffffffffffffffffffffffffffffffffffffffff\n      and\n      eq\n        /* \"@openzeppelin/contracts/access/Ownable.sol\":1851:1952  if (owner() != _msgSender()) {... */\n      tag_118\n      jumpi\n        /* \"@openzeppelin/contracts/access/Ownable.sol\":1928:1940  _msgSender() */\n      tag_119\n        /* \"@openzeppelin/contracts/access/Ownable.sol\":1928:1938  _msgSender */\n      tag_116\n        /* \"@openzeppelin/contracts/access/Ownable.sol\":1928:1940  _msgSender() */\n      jump\t// in\n    tag_119:\n        /* \"@openzeppelin/contracts/access/Ownable.sol\":1901:1941  OwnableUnauthorizedAccount(_msgSender()) */\n      mload(0x40)\n      0x118cdaa700000000000000000000000000000000000000000000000000000000\n      dup2\n      mstore\n      0x04\n      add\n      tag_120\n      swap2\n      swap1\n      tag_31\n      jump\t// in\n    tag_120:\n      mload(0x40)\n      dup1\n      swap2\n      sub\n      swap1\n      revert\n        /* \"@openzeppelin/contracts/access/Ownable.sol\":1851:1952  if (owner() != _msgSender()) {... */\n    tag_118:\n        /* \"@openzeppelin/contracts/access/Ownable.sol\":1796:1958  function _checkOwner() internal view virtual {... */\n      jump\t// out\n        /* \"@openzeppelin/contracts/access/Ownable.sol\":2912:3099  function _transferOwnership(address newOwner) internal virtual {... */\n    tag_73:\n        /* \"@openzeppelin/contracts/access/Ownable.sol\":2985:3001  address oldOwner */\n      0x00\n        /* \"@openzeppelin/contracts/access/Ownable.sol\":3004:3010  _owner */\n      dup1\n      0x00\n      swap1\n      sload\n      swap1\n      0x0100\n      exp\n      swap1\n      div\n      0xffffffffffffffffffffffffffffffffffffffff\n      and\n        /* \"@openzeppelin/contracts/access/Ownable.sol\":2985:3010  address oldOwner = _owner */\n      swap1\n      pop\n        /* \"@openzeppelin/contracts/access/Ownable.sol\":3029:3037  newOwner */\n      dup2\n        /* \"@openzeppelin/contracts/access/Ownable.sol\":3020:3026  _owner */\n      0x00\n      dup1\n        /* \"@openzeppelin/contracts/access/Ownable.sol\":3020:3037  _owner = newOwner */\n      0x0100\n      exp\n      dup2\n      sload\n      dup2\n      0xffffffffffffffffffffffffffffffffffffffff\n      mul\n      not\n      and\n      swap1\n      dup4\n      0xffffffffffffffffffffffffffffffffffffffff\n      and\n      mul\n      or\n      swap1\n      sstore\n      pop\n        /* \"@openzeppelin/contracts/access/Ownable.sol\":3083:3091  newOwner */\n      dup2\n        /* \"@openzeppelin/contracts/access/Ownable.sol\":3052:3092  OwnershipTransferred(oldOwner, newOwner) */\n      0xffffffffffffffffffffffffffffffffffffffff\n      and\n        /* \"@openzeppelin/contracts/access/Ownable.sol\":3073:3081  oldOwner */\n      dup2\n        /* \"@openzeppelin/contracts/access/Ownable.sol\":3052:3092  OwnershipTransferred(oldOwner, newOwner) */\n      0xffffffffffffffffffffffffffffffffffffffff\n      and\n      0x8be0079c531659141344cd1fd0a4f28419497f9722a3daafe3b4186f6b6457e0\n      mload(0x40)\n      mload(0x40)\n      dup1\n      swap2\n      sub\n      swap1\n      log3\n        /* \"@openzeppelin/contracts/access/Ownable.sol\":2975:3099  {... */\n      pop\n        /* \"@openzeppelin/contracts/access/Ownable.sol\":2912:3099  function _transferOwnership(address newOwner) internal virtual {... */\n      pop\n      jump\t// out\n        /* \"@openzeppelin/contracts/security/ReentrancyGuard.sol\":2336:2623  function _nonReentrantBefore() private {... */\n    tag_91:\n        /* \"@openzeppelin/contracts/security/ReentrancyGuard.sol\":1759:1760  2 */\n      0x02\n        /* \"@openzeppelin/contracts/security/ReentrancyGuard.sol\":2468:2475  _status */\n      sload(0x01)\n        /* \"@openzeppelin/contracts/security/ReentrancyGuard.sol\":2468:2487  _status != _ENTERED */\n      sub\n        /* \"@openzeppelin/contracts/security/ReentrancyGuard.sol\":2460:2523  require(_status != _ENTERED, \"ReentrancyGuard: reentrant call\") */\n      tag_123\n      jumpi\n      mload(0x40)\n      0x08c379a000000000000000000000000000000000000000000000000000000000\n      dup2\n      mstore\n      0x04\n      add\n      tag_124\n      swap1\n      tag_125\n      jump\t// in\n    tag_124:\n      mload(0x40)\n      dup1\n      swap2\n      sub\n      swap1\n      revert\n    tag_123:\n        /* \"@openzeppelin/contracts/security/ReentrancyGuard.sol\":1759:1760  2 */\n      0x02\n        /* \"@openzeppelin/contracts/security/ReentrancyGuard.sol\":2598:2605  _status */\n      0x01\n        /* \"@openzeppelin/contracts/security/ReentrancyGuard.sol\":2598:2616  _status = _ENTERED */\n      dup2\n      swap1\n      sstore\n      pop\n        /* \"@openzeppelin/contracts/security/ReentrancyGuard.sol\":2336:2623  function _nonReentrantBefore() private {... */\n      jump\t// out\n        /* \"@openzeppelin/contracts/security/ReentrancyGuard.sol\":2629:2838  function _nonReentrantAfter() private {... */\n    tag_107:\n        /* \"@openzeppelin/contracts/security/ReentrancyGuard.sol\":1716:1717  1 */\n      0x01\n        /* \"@openzeppelin/contracts/security/ReentrancyGuard.sol\":2809:2816  _status */\n      dup1\n        /* \"@openzeppelin/contracts/security/ReentrancyGuard.sol\":2809:2831  _status = _NOT_ENTERED */\n      dup2\n      swap1\n      sstore\n      pop\n        /* \"@openzeppelin/contracts/security/ReentrancyGuard.sol\":2629:2838  function _nonReentrantAfter() private {... */\n      jump\t// out\n        /* \"@openzeppelin/contracts/utils/Context.sol\":656:752  function _msgSender() internal view virtual returns (address) {... */\n    tag_116:\n        /* \"@openzeppelin/contracts/utils/Context.sol\":709:716  address */\n      0x00\n        /* \"@openzeppelin/contracts/utils/Context.sol\":735:745  msg.sender */\n      caller\n        /* \"@openzeppelin/contracts/utils/Context.sol\":728:745  return msg.sender */\n      swap1\n      pop\n        /* \"@openzeppelin/contracts/utils/Context.sol\":656:752  function _msgSender() internal view virtual returns (address) {... */\n      swap1\n      jump\t// out\n    tag_62:\n      mload(0x40)\n      dup1\n      0x40\n      add\n      0x40\n      mstore\n      dup1\n      0x00\n      dup2\n      mstore\n      0x20\n      add\n      and(0xffffffffffffffffffffffffffffffffffffffff, 0x00)\n      dup2\n      mstore\n      pop\n      swap1\n      jump\t// out\n        /* \"#utility.yul\":88:205   */\n    tag_129:\n        /* \"#utility.yul\":197:198   */\n      0x00\n        /* \"#utility.yul\":194:195   */\n      dup1\n        /* \"#utility.yul\":187:199   */\n      revert\n        /* \"#utility.yul\":334:411   */\n    tag_131:\n        /* \"#utility.yul\":371:378   */\n      0x00\n        /* \"#utility.yul\":400:405   */\n      dup2\n        /* \"#utility.yul\":389:405   */\n      swap1\n      pop\n        /* \"#utility.yul\":334:411   */\n      swap2\n      swap1\n      pop\n      jump\t// out\n        /* \"#utility.yul\":417:539   */\n    tag_132:\n        /* \"#utility.yul\":490:514   */\n      tag_170\n        /* \"#utility.yul\":508:513   */\n      dup2\n        /* \"#utility.yul\":490:514   */\n      tag_131\n      jump\t// in\n    tag_170:\n        /* \"#utility.yul\":483:488   */\n      dup2\n        /* \"#utility.yul\":480:515   */\n      eq\n        /* \"#utility.yul\":470:533   */\n      tag_171\n      jumpi\n        /* \"#utility.yul\":529:530   */\n      0x00\n        /* \"#utility.yul\":526:527   */\n      dup1\n        /* \"#utility.yul\":519:531   */\n      revert\n        /* \"#utility.yul\":470:533   */\n    tag_171:\n        /* \"#utility.yul\":417:539   */\n      pop\n      jump\t// out\n        /* \"#utility.yul\":545:684   */\n    tag_133:\n        /* \"#utility.yul\":591:596   */\n      0x00\n        /* \"#utility.yul\":629:635   */\n      dup2\n        /* \"#utility.yul\":616:636   */\n      calldataload\n        /* \"#utility.yul\":607:636   */\n      swap1\n      pop\n        /* \"#utility.yul\":645:678   */\n      tag_173\n        /* \"#utility.yul\":672:677   */\n      dup2\n        /* \"#utility.yul\":645:678   */\n      tag_132\n      jump\t// in\n    tag_173:\n        /* \"#utility.yul\":545:684   */\n      swap3\n      swap2\n      pop\n      pop\n      jump\t// out\n        /* \"#utility.yul\":690:1019   */\n    tag_16:\n        /* \"#utility.yul\":749:755   */\n      0x00\n        /* \"#utility.yul\":798:800   */\n      0x20\n        /* \"#utility.yul\":786:795   */\n      dup3\n        /* \"#utility.yul\":777:784   */\n      dup5\n        /* \"#utility.yul\":773:796   */\n      sub\n        /* \"#utility.yul\":769:801   */\n      slt\n        /* \"#utility.yul\":766:885   */\n      iszero\n      tag_175\n      jumpi\n        /* \"#utility.yul\":804:883   */\n      tag_176\n      tag_129\n      jump\t// in\n    tag_176:\n        /* \"#utility.yul\":766:885   */\n    tag_175:\n        /* \"#utility.yul\":924:925   */\n      0x00\n        /* \"#utility.yul\":949:1002   */\n      tag_177\n        /* \"#utility.yul\":994:1001   */\n      dup5\n        /* \"#utility.yul\":985:991   */\n      dup3\n        /* \"#utility.yul\":974:983   */\n      dup6\n        /* \"#utility.yul\":970:992   */\n      add\n        /* \"#utility.yul\":949:1002   */\n      tag_133\n      jump\t// in\n    tag_177:\n        /* \"#utility.yul\":939:1002   */\n      swap2\n      pop\n        /* \"#utility.yul\":895:1012   */\n      pop\n        /* \"#utility.yul\":690:1019   */\n      swap3\n      swap2\n      pop\n      pop\n      jump\t// out\n        /* \"#utility.yul\":1025:1133   */\n    tag_134:\n        /* \"#utility.yul\":1102:1126   */\n      tag_179\n        /* \"#utility.yul\":1120:1125   */\n      dup2\n        /* \"#utility.yul\":1102:1126   */\n      tag_131\n      jump\t// in\n    tag_179:\n        /* \"#utility.yul\":1097:1100   */\n      dup3\n        /* \"#utility.yul\":1090:1127   */\n      mstore\n        /* \"#utility.yul\":1025:1133   */\n      pop\n      pop\n      jump\t// out\n        /* \"#utility.yul\":1139:1265   */\n    tag_135:\n        /* \"#utility.yul\":1176:1183   */\n      0x00\n        /* \"#utility.yul\":1216:1258   */\n      0xffffffffffffffffffffffffffffffffffffffff\n        /* \"#utility.yul\":1209:1214   */\n      dup3\n        /* \"#utility.yul\":1205:1259   */\n      and\n        /* \"#utility.yul\":1194:1259   */\n      swap1\n      pop\n        /* \"#utility.yul\":1139:1265   */\n      swap2\n      swap1\n      pop\n      jump\t// out\n        /* \"#utility.yul\":1271:1367   */\n    tag_136:\n        /* \"#utility.yul\":1308:1315   */\n      0x00\n        /* \"#utility.yul\":1337:1361   */\n      tag_182\n        /* \"#utility.yul\":1355:1360   */\n      dup3\n        /* \"#utility.yul\":1337:1361   */\n      tag_135\n      jump\t// in\n    tag_182:\n        /* \"#utility.yul\":1326:1361   */\n      swap1\n      pop\n        /* \"#utility.yul\":1271:1367   */\n      swap2\n      swap1\n      pop\n      jump\t// out\n        /* \"#utility.yul\":1373:1481   */\n    tag_137:\n        /* \"#utility.yul\":1450:1474   */\n      tag_184\n        /* \"#utility.yul\":1468:1473   */\n      dup2\n        /* \"#utility.yul\":1450:1474   */\n      tag_136\n      jump\t// in\n    tag_184:\n        /* \"#utility.yul\":1445:1448   */\n      dup3\n        /* \"#utility.yul\":1438:1475   */\n      mstore\n        /* \"#utility.yul\":1373:1481   */\n      pop\n      pop\n      jump\t// out\n        /* \"#utility.yul\":1545:2053   */\n    tag_138:\n        /* \"#utility.yul\":1690:1694   */\n      0x40\n        /* \"#utility.yul\":1685:1688   */\n      dup3\n        /* \"#utility.yul\":1681:1695   */\n      add\n        /* \"#utility.yul\":1778:1782   */\n      0x00\n        /* \"#utility.yul\":1771:1776   */\n      dup3\n        /* \"#utility.yul\":1767:1783   */\n      add\n        /* \"#utility.yul\":1761:1784   */\n      mload\n        /* \"#utility.yul\":1797:1860   */\n      tag_186\n        /* \"#utility.yul\":1854:1858   */\n      0x00\n        /* \"#utility.yul\":1849:1852   */\n      dup6\n        /* \"#utility.yul\":1845:1859   */\n      add\n        /* \"#utility.yul\":1831:1843   */\n      dup3\n        /* \"#utility.yul\":1797:1860   */\n      tag_134\n      jump\t// in\n    tag_186:\n        /* \"#utility.yul\":1705:1870   */\n      pop\n        /* \"#utility.yul\":1954:1958   */\n      0x20\n        /* \"#utility.yul\":1947:1952   */\n      dup3\n        /* \"#utility.yul\":1943:1959   */\n      add\n        /* \"#utility.yul\":1937:1960   */\n      mload\n        /* \"#utility.yul\":1973:2036   */\n      tag_187\n        /* \"#utility.yul\":2030:2034   */\n      0x20\n        /* \"#utility.yul\":2025:2028   */\n      dup6\n        /* \"#utility.yul\":2021:2035   */\n      add\n        /* \"#utility.yul\":2007:2019   */\n      dup3\n        /* \"#utility.yul\":1973:2036   */\n      tag_137\n      jump\t// in\n    tag_187:\n        /* \"#utility.yul\":1880:2046   */\n      pop\n        /* \"#utility.yul\":1659:2053   */\n      pop\n        /* \"#utility.yul\":1545:2053   */\n      pop\n      pop\n      jump\t// out\n        /* \"#utility.yul\":2059:2377   */\n    tag_19:\n        /* \"#utility.yul\":2200:2204   */\n      0x00\n        /* \"#utility.yul\":2238:2240   */\n      0x40\n        /* \"#utility.yul\":2227:2236   */\n      dup3\n        /* \"#utility.yul\":2223:2241   */\n      add\n        /* \"#utility.yul\":2215:2241   */\n      swap1\n      pop\n        /* \"#utility.yul\":2251:2370   */\n      tag_189\n        /* \"#utility.yul\":2367:2368   */\n      0x00\n        /* \"#utility.yul\":2356:2365   */\n      dup4\n        /* \"#utility.yul\":2352:2369   */\n      add\n        /* \"#utility.yul\":2343:2349   */\n      dup5\n        /* \"#utility.yul\":2251:2370   */\n      tag_138\n      jump\t// in\n    tag_189:\n        /* \"#utility.yul\":2059:2377   */\n      swap3\n      swap2\n      pop\n      pop\n      jump\t// out\n        /* \"#utility.yul\":2383:2501   */\n    tag_139:\n        /* \"#utility.yul\":2470:2494   */\n      tag_191\n        /* \"#utility.yul\":2488:2493   */\n      dup2\n        /* \"#utility.yul\":2470:2494   */\n      tag_136\n      jump\t// in\n    tag_191:\n        /* \"#utility.yul\":2465:2468   */\n      dup3\n        /* \"#utility.yul\":2458:2495   */\n      mstore\n        /* \"#utility.yul\":2383:2501   */\n      pop\n      pop\n      jump\t// out\n        /* \"#utility.yul\":2507:2729   */\n    tag_31:\n        /* \"#utility.yul\":2600:2604   */\n      0x00\n        /* \"#utility.yul\":2638:2640   */\n      0x20\n        /* \"#utility.yul\":2627:2636   */\n      dup3\n        /* \"#utility.yul\":2623:2641   */\n      add\n        /* \"#utility.yul\":2615:2641   */\n      swap1\n      pop\n        /* \"#utility.yul\":2651:2722   */\n      tag_193\n        /* \"#utility.yul\":2719:2720   */\n      0x00\n        /* \"#utility.yul\":2708:2717   */\n      dup4\n        /* \"#utility.yul\":2704:2721   */\n      add\n        /* \"#utility.yul\":2695:2701   */\n      dup5\n        /* \"#utility.yul\":2651:2722   */\n      tag_139\n      jump\t// in\n    tag_193:\n        /* \"#utility.yul\":2507:2729   */\n      swap3\n      swap2\n      pop\n      pop\n      jump\t// out\n        /* \"#utility.yul\":2735:2795   */\n    tag_140:\n        /* \"#utility.yul\":2763:2766   */\n      0x00\n        /* \"#utility.yul\":2784:2789   */\n      dup2\n        /* \"#utility.yul\":2777:2789   */\n      swap1\n      pop\n        /* \"#utility.yul\":2735:2795   */\n      swap2\n      swap1\n      pop\n      jump\t// out\n        /* \"#utility.yul\":2801:2943   */\n    tag_141:\n        /* \"#utility.yul\":2851:2860   */\n      0x00\n        /* \"#utility.yul\":2884:2937   */\n      tag_196\n        /* \"#utility.yul\":2902:2936   */\n      tag_197\n        /* \"#utility.yul\":2911:2935   */\n      tag_198\n        /* \"#utility.yul\":2929:2934   */\n      dup5\n        /* \"#utility.yul\":2911:2935   */\n      tag_135\n      jump\t// in\n    tag_198:\n        /* \"#utility.yul\":2902:2936   */\n      tag_140\n      jump\t// in\n    tag_197:\n        /* \"#utility.yul\":2884:2937   */\n      tag_135\n      jump\t// in\n    tag_196:\n        /* \"#utility.yul\":2871:2937   */\n      swap1\n      pop\n        /* \"#utility.yul\":2801:2943   */\n      swap2\n      swap1\n      pop\n      jump\t// out\n        /* \"#utility.yul\":2949:3075   */\n    tag_142:\n        /* \"#utility.yul\":2999:3008   */\n      0x00\n        /* \"#utility.yul\":3032:3069   */\n      tag_200\n        /* \"#utility.yul\":3063:3068   */\n      dup3\n        /* \"#utility.yul\":3032:3069   */\n      tag_141\n      jump\t// in\n    tag_200:\n        /* \"#utility.yul\":3019:3069   */\n      swap1\n      pop\n        /* \"#utility.yul\":2949:3075   */\n      swap2\n      swap1\n      pop\n      jump\t// out\n        /* \"#utility.yul\":3081:3232   */\n    tag_143:\n        /* \"#utility.yul\":3156:3165   */\n      0x00\n        /* \"#utility.yul\":3189:3226   */\n      tag_202\n        /* \"#utility.yul\":3220:3225   */\n      dup3\n        /* \"#utility.yul\":3189:3226   */\n      tag_142\n      jump\t// in\n    tag_202:\n        /* \"#utility.yul\":3176:3226   */\n      swap1\n      pop\n        /* \"#utility.yul\":3081:3232   */\n      swap2\n      swap1\n      pop\n      jump\t// out\n        /* \"#utility.yul\":3238:3419   */\n    tag_144:\n        /* \"#utility.yul\":3350:3412   */\n      tag_204\n        /* \"#utility.yul\":3406:3411   */\n      dup2\n        /* \"#utility.yul\":3350:3412   */\n      tag_143\n      jump\t// in\n    tag_204:\n        /* \"#utility.yul\":3345:3348   */\n      dup3\n        /* \"#utility.yul\":3338:3413   */\n      mstore\n        /* \"#utility.yul\":3238:3419   */\n      pop\n      pop\n      jump\t// out\n        /* \"#utility.yul\":3425:3697   */\n    tag_36:\n        /* \"#utility.yul\":3543:3547   */\n      0x00\n        /* \"#utility.yul\":3581:3583   */\n      0x20\n        /* \"#utility.yul\":3570:3579   */\n      dup3\n        /* \"#utility.yul\":3566:3584   */\n      add\n        /* \"#utility.yul\":3558:3584   */\n      swap1\n      pop\n        /* \"#utility.yul\":3594:3690   */\n      tag_206\n        /* \"#utility.yul\":3687:3688   */\n      0x00\n        /* \"#utility.yul\":3676:3685   */\n      dup4\n        /* \"#utility.yul\":3672:3689   */\n      add\n        /* \"#utility.yul\":3663:3669   */\n      dup5\n        /* \"#utility.yul\":3594:3690   */\n      tag_144\n      jump\t// in\n    tag_206:\n        /* \"#utility.yul\":3425:3697   */\n      swap3\n      swap2\n      pop\n      pop\n      jump\t// out\n        /* \"#utility.yul\":3703:3850   */\n    tag_145:\n        /* \"#utility.yul\":3774:3783   */\n      0x00\n        /* \"#utility.yul\":3807:3844   */\n      tag_208\n        /* \"#utility.yul\":3838:3843   */\n      dup3\n        /* \"#utility.yul\":3807:3844   */\n      tag_142\n      jump\t// in\n    tag_208:\n        /* \"#utility.yul\":3794:3844   */\n      swap1\n      pop\n        /* \"#utility.yul\":3703:3850   */\n      swap2\n      swap1\n      pop\n      jump\t// out\n        /* \"#utility.yul\":3856:4029   */\n    tag_146:\n        /* \"#utility.yul\":3964:4022   */\n      tag_210\n        /* \"#utility.yul\":4016:4021   */\n      dup2\n        /* \"#utility.yul\":3964:4022   */\n      tag_145\n      jump\t// in\n    tag_210:\n        /* \"#utility.yul\":3959:3962   */\n      dup3\n        /* \"#utility.yul\":3952:4023   */\n      mstore\n        /* \"#utility.yul\":3856:4029   */\n      pop\n      pop\n      jump\t// out\n        /* \"#utility.yul\":4035:4299   */\n    tag_41:\n        /* \"#utility.yul\":4149:4153   */\n      0x00\n        /* \"#utility.yul\":4187:4189   */\n      0x20\n        /* \"#utility.yul\":4176:4185   */\n      dup3\n        /* \"#utility.yul\":4172:4190   */\n      add\n        /* \"#utility.yul\":4164:4190   */\n      swap1\n      pop\n        /* \"#utility.yul\":4200:4292   */\n      tag_212\n        /* \"#utility.yul\":4289:4290   */\n      0x00\n        /* \"#utility.yul\":4278:4287   */\n      dup4\n        /* \"#utility.yul\":4274:4291   */\n      add\n        /* \"#utility.yul\":4265:4271   */\n      dup5\n        /* \"#utility.yul\":4200:4292   */\n      tag_146\n      jump\t// in\n    tag_212:\n        /* \"#utility.yul\":4035:4299   */\n      swap3\n      swap2\n      pop\n      pop\n      jump\t// out\n        /* \"#utility.yul\":4305:4423   */\n    tag_147:\n        /* \"#utility.yul\":4392:4416   */\n      tag_214\n        /* \"#utility.yul\":4410:4415   */\n      dup2\n        /* \"#utility.yul\":4392:4416   */\n      tag_131\n      jump\t// in\n    tag_214:\n        /* \"#utility.yul\":4387:4390   */\n      dup3\n        /* \"#utility.yul\":4380:4417   */\n      mstore\n        /* \"#utility.yul\":4305:4423   */\n      pop\n      pop\n      jump\t// out\n        /* \"#utility.yul\":4429:4761   */\n    tag_47:\n        /* \"#utility.yul\":4550:4554   */\n      0x00\n        /* \"#utility.yul\":4588:4590   */\n      0x40\n        /* \"#utility.yul\":4577:4586   */\n      dup3\n        /* \"#utility.yul\":4573:4591   */\n      add\n        /* \"#utility.yul\":4565:4591   */\n      swap1\n      pop\n        /* \"#utility.yul\":4601:4672   */\n      tag_216\n        /* \"#utility.yul\":4669:4670   */\n      0x00\n        /* \"#utility.yul\":4658:4667   */\n      dup4\n        /* \"#utility.yul\":4654:4671   */\n      add\n        /* \"#utility.yul\":4645:4651   */\n      dup6\n        /* \"#utility.yul\":4601:4672   */\n      tag_147\n      jump\t// in\n    tag_216:\n        /* \"#utility.yul\":4682:4754   */\n      tag_217\n        /* \"#utility.yul\":4750:4752   */\n      0x20\n        /* \"#utility.yul\":4739:4748   */\n      dup4\n        /* \"#utility.yul\":4735:4753   */\n      add\n        /* \"#utility.yul\":4726:4732   */\n      dup5\n        /* \"#utility.yul\":4682:4754   */\n      tag_139\n      jump\t// in\n    tag_217:\n        /* \"#utility.yul\":4429:4761   */\n      swap4\n      swap3\n      pop\n      pop\n      pop\n      jump\t// out\n        /* \"#utility.yul\":4767:5241   */\n    tag_51:\n        /* \"#utility.yul\":4835:4841   */\n      0x00\n        /* \"#utility.yul\":4843:4849   */\n      dup1\n        /* \"#utility.yul\":4892:4894   */\n      0x40\n        /* \"#utility.yul\":4880:4889   */\n      dup4\n        /* \"#utility.yul\":4871:4878   */\n      dup6\n        /* \"#utility.yul\":4867:4890   */\n      sub\n        /* \"#utility.yul\":4863:4895   */\n      slt\n        /* \"#utility.yul\":4860:4979   */\n      iszero\n      tag_219\n      jumpi\n        /* \"#utility.yul\":4898:4977   */\n      tag_220\n      tag_129\n      jump\t// in\n    tag_220:\n        /* \"#utility.yul\":4860:4979   */\n    tag_219:\n        /* \"#utility.yul\":5018:5019   */\n      0x00\n        /* \"#utility.yul\":5043:5096   */\n      tag_221\n        /* \"#utility.yul\":5088:5095   */\n      dup6\n        /* \"#utility.yul\":5079:5085   */\n      dup3\n        /* \"#utility.yul\":5068:5077   */\n      dup7\n        /* \"#utility.yul\":5064:5086   */\n      add\n        /* \"#utility.yul\":5043:5096   */\n      tag_133\n      jump\t// in\n    tag_221:\n        /* \"#utility.yul\":5033:5096   */\n      swap3\n      pop\n        /* \"#utility.yul\":4989:5106   */\n      pop\n        /* \"#utility.yul\":5145:5147   */\n      0x20\n        /* \"#utility.yul\":5171:5224   */\n      tag_222\n        /* \"#utility.yul\":5216:5223   */\n      dup6\n        /* \"#utility.yul\":5207:5213   */\n      dup3\n        /* \"#utility.yul\":5196:5205   */\n      dup7\n        /* \"#utility.yul\":5192:5214   */\n      add\n        /* \"#utility.yul\":5171:5224   */\n      tag_133\n      jump\t// in\n    tag_222:\n        /* \"#utility.yul\":5161:5224   */\n      swap2\n      pop\n        /* \"#utility.yul\":5116:5234   */\n      pop\n        /* \"#utility.yul\":4767:5241   */\n      swap3\n      pop\n      swap3\n      swap1\n      pop\n      jump\t// out\n        /* \"#utility.yul\":5247:5369   */\n    tag_148:\n        /* \"#utility.yul\":5320:5344   */\n      tag_224\n        /* \"#utility.yul\":5338:5343   */\n      dup2\n        /* \"#utility.yul\":5320:5344   */\n      tag_136\n      jump\t// in\n    tag_224:\n        /* \"#utility.yul\":5313:5318   */\n      dup2\n        /* \"#utility.yul\":5310:5345   */\n      eq\n        /* \"#utility.yul\":5300:5363   */\n      tag_225\n      jumpi\n        /* \"#utility.yul\":5359:5360   */\n      0x00\n        /* \"#utility.yul\":5356:5357   */\n      dup1\n        /* \"#utility.yul\":5349:5361   */\n      revert\n        /* \"#utility.yul\":5300:5363   */\n    tag_225:\n        /* \"#utility.yul\":5247:5369   */\n      pop\n      jump\t// out\n        /* \"#utility.yul\":5375:5514   */\n    tag_149:\n        /* \"#utility.yul\":5421:5426   */\n      0x00\n        /* \"#utility.yul\":5459:5465   */\n      dup2\n        /* \"#utility.yul\":5446:5466   */\n      calldataload\n        /* \"#utility.yul\":5437:5466   */\n      swap1\n      pop\n        /* \"#utility.yul\":5475:5508   */\n      tag_227\n        /* \"#utility.yul\":5502:5507   */\n      dup2\n        /* \"#utility.yul\":5475:5508   */\n      tag_148\n      jump\t// in\n    tag_227:\n        /* \"#utility.yul\":5375:5514   */\n      swap3\n      swap2\n      pop\n      pop\n      jump\t// out\n        /* \"#utility.yul\":5520:5849   */\n    tag_59:\n        /* \"#utility.yul\":5579:5585   */\n      0x00\n        /* \"#utility.yul\":5628:5630   */\n      0x20\n        /* \"#utility.yul\":5616:5625   */\n      dup3\n        /* \"#utility.yul\":5607:5614   */\n      dup5\n        /* \"#utility.yul\":5603:5626   */\n      sub\n        /* \"#utility.yul\":5599:5631   */\n      slt\n        /* \"#utility.yul\":5596:5715   */\n      iszero\n      tag_229\n      jumpi\n        /* \"#utility.yul\":5634:5713   */\n      tag_230\n      tag_129\n      jump\t// in\n    tag_230:\n        /* \"#utility.yul\":5596:5715   */\n    tag_229:\n        /* \"#utility.yul\":5754:5755   */\n      0x00\n        /* \"#utility.yul\":5779:5832   */\n      tag_231\n        /* \"#utility.yul\":5824:5831   */\n      dup5\n        /* \"#utility.yul\":5815:5821   */\n      dup3\n        /* \"#utility.yul\":5804:5813   */\n      dup6\n        /* \"#utility.yul\":5800:5822   */\n      add\n        /* \"#utility.yul\":5779:5832   */\n      tag_149\n      jump\t// in\n    tag_231:\n        /* \"#utility.yul\":5769:5832   */\n      swap2\n      pop\n        /* \"#utility.yul\":5725:5842   */\n      pop\n        /* \"#utility.yul\":5520:5849   */\n      swap3\n      swap2\n      pop\n      pop\n      jump\t// out\n        /* \"#utility.yul\":5855:6024   */\n    tag_150:\n        /* \"#utility.yul\":5939:5950   */\n      0x00\n        /* \"#utility.yul\":5973:5979   */\n      dup3\n        /* \"#utility.yul\":5968:5971   */\n      dup3\n        /* \"#utility.yul\":5961:5980   */\n      mstore\n        /* \"#utility.yul\":6013:6017   */\n      0x20\n        /* \"#utility.yul\":6008:6011   */\n      dup3\n        /* \"#utility.yul\":6004:6018   */\n      add\n        /* \"#utility.yul\":5989:6018   */\n      swap1\n      pop\n        /* \"#utility.yul\":5855:6024   */\n      swap3\n      swap2\n      pop\n      pop\n      jump\t// out\n        /* \"#utility.yul\":6030:6202   */\n    tag_151:\n        /* \"#utility.yul\":6170:6194   */\n      0x596f7520617265206e6f74207468652073656c6c657200000000000000000000\n        /* \"#utility.yul\":6166:6167   */\n      0x00\n        /* \"#utility.yul\":6158:6164   */\n      dup3\n        /* \"#utility.yul\":6154:6168   */\n      add\n        /* \"#utility.yul\":6147:6195   */\n      mstore\n        /* \"#utility.yul\":6030:6202   */\n      pop\n      jump\t// out\n        /* \"#utility.yul\":6208:6574   */\n    tag_152:\n        /* \"#utility.yul\":6350:6353   */\n      0x00\n        /* \"#utility.yul\":6371:6438   */\n      tag_235\n        /* \"#utility.yul\":6435:6437   */\n      0x16\n        /* \"#utility.yul\":6430:6433   */\n      dup4\n        /* \"#utility.yul\":6371:6438   */\n      tag_150\n      jump\t// in\n    tag_235:\n        /* \"#utility.yul\":6364:6438   */\n      swap2\n      pop\n        /* \"#utility.yul\":6447:6540   */\n      tag_236\n        /* \"#utility.yul\":6536:6539   */\n      dup3\n        /* \"#utility.yul\":6447:6540   */\n      tag_151\n      jump\t// in\n    tag_236:\n        /* \"#utility.yul\":6565:6567   */\n      0x20\n        /* \"#utility.yul\":6560:6563   */\n      dup3\n        /* \"#utility.yul\":6556:6568   */\n      add\n        /* \"#utility.yul\":6549:6568   */\n      swap1\n      pop\n        /* \"#utility.yul\":6208:6574   */\n      swap2\n      swap1\n      pop\n      jump\t// out\n        /* \"#utility.yul\":6580:6999   */\n    tag_67:\n        /* \"#utility.yul\":6746:6750   */\n      0x00\n        /* \"#utility.yul\":6784:6786   */\n      0x20\n        /* \"#utility.yul\":6773:6782   */\n      dup3\n        /* \"#utility.yul\":6769:6787   */\n      add\n        /* \"#utility.yul\":6761:6787   */\n      swap1\n      pop\n        /* \"#utility.yul\":6833:6842   */\n      dup2\n        /* \"#utility.yul\":6827:6831   */\n      dup2\n        /* \"#utility.yul\":6823:6843   */\n      sub\n        /* \"#utility.yul\":6819:6820   */\n      0x00\n        /* \"#utility.yul\":6808:6817   */\n      dup4\n        /* \"#utility.yul\":6804:6821   */\n      add\n        /* \"#utility.yul\":6797:6844   */\n      mstore\n        /* \"#utility.yul\":6861:6992   */\n      tag_238\n        /* \"#utility.yul\":6987:6991   */\n      dup2\n        /* \"#utility.yul\":6861:6992   */\n      tag_152\n      jump\t// in\n    tag_238:\n        /* \"#utility.yul\":6853:6992   */\n      swap1\n      pop\n        /* \"#utility.yul\":6580:6999   */\n      swap2\n      swap1\n      pop\n      jump\t// out\n        /* \"#utility.yul\":7005:7183   */\n    tag_153:\n        /* \"#utility.yul\":7145:7175   */\n      0x5072696365206d7573742062652067726561746572207468616e203000000000\n        /* \"#utility.yul\":7141:7142   */\n      0x00\n        /* \"#utility.yul\":7133:7139   */\n      dup3\n        /* \"#utility.yul\":7129:7143   */\n      add\n        /* \"#utility.yul\":7122:7176   */\n      mstore\n        /* \"#utility.yul\":7005:7183   */\n      pop\n      jump\t// out\n        /* \"#utility.yul\":7189:7555   */\n    tag_154:\n        /* \"#utility.yul\":7331:7334   */\n      0x00\n        /* \"#utility.yul\":7352:7419   */\n      tag_241\n        /* \"#utility.yul\":7416:7418   */\n      0x1c\n        /* \"#utility.yul\":7411:7414   */\n      dup4\n        /* \"#utility.yul\":7352:7419   */\n      tag_150\n      jump\t// in\n    tag_241:\n        /* \"#utility.yul\":7345:7419   */\n      swap2\n      pop\n        /* \"#utility.yul\":7428:7521   */\n      tag_242\n        /* \"#utility.yul\":7517:7520   */\n      dup3\n        /* \"#utility.yul\":7428:7521   */\n      tag_153\n      jump\t// in\n    tag_242:\n        /* \"#utility.yul\":7546:7548   */\n      0x20\n        /* \"#utility.yul\":7541:7544   */\n      dup3\n        /* \"#utility.yul\":7537:7549   */\n      add\n        /* \"#utility.yul\":7530:7549   */\n      swap1\n      pop\n        /* \"#utility.yul\":7189:7555   */\n      swap2\n      swap1\n      pop\n      jump\t// out\n        /* \"#utility.yul\":7561:7980   */\n    tag_78:\n        /* \"#utility.yul\":7727:7731   */\n      0x00\n        /* \"#utility.yul\":7765:7767   */\n      0x20\n        /* \"#utility.yul\":7754:7763   */\n      dup3\n        /* \"#utility.yul\":7750:7768   */\n      add\n        /* \"#utility.yul\":7742:7768   */\n      swap1\n      pop\n        /* \"#utility.yul\":7814:7823   */\n      dup2\n        /* \"#utility.yul\":7808:7812   */\n      dup2\n        /* \"#utility.yul\":7804:7824   */\n      sub\n        /* \"#utility.yul\":7800:7801   */\n      0x00\n        /* \"#utility.yul\":7789:7798   */\n      dup4\n        /* \"#utility.yul\":7785:7802   */\n      add\n        /* \"#utility.yul\":7778:7825   */\n      mstore\n        /* \"#utility.yul\":7842:7973   */\n      tag_244\n        /* \"#utility.yul\":7968:7972   */\n      dup2\n        /* \"#utility.yul\":7842:7973   */\n      tag_154\n      jump\t// in\n    tag_244:\n        /* \"#utility.yul\":7834:7973   */\n      swap1\n      pop\n        /* \"#utility.yul\":7561:7980   */\n      swap2\n      swap1\n      pop\n      jump\t// out\n        /* \"#utility.yul\":7986:8208   */\n    tag_80:\n        /* \"#utility.yul\":8079:8083   */\n      0x00\n        /* \"#utility.yul\":8117:8119   */\n      0x20\n        /* \"#utility.yul\":8106:8115   */\n      dup3\n        /* \"#utility.yul\":8102:8120   */\n      add\n        /* \"#utility.yul\":8094:8120   */\n      swap1\n      pop\n        /* \"#utility.yul\":8130:8201   */\n      tag_246\n        /* \"#utility.yul\":8198:8199   */\n      0x00\n        /* \"#utility.yul\":8187:8196   */\n      dup4\n        /* \"#utility.yul\":8183:8200   */\n      add\n        /* \"#utility.yul\":8174:8180   */\n      dup5\n        /* \"#utility.yul\":8130:8201   */\n      tag_147\n      jump\t// in\n    tag_246:\n        /* \"#utility.yul\":7986:8208   */\n      swap3\n      swap2\n      pop\n      pop\n      jump\t// out\n        /* \"#utility.yul\":8214:8357   */\n    tag_155:\n        /* \"#utility.yul\":8271:8276   */\n      0x00\n        /* \"#utility.yul\":8302:8308   */\n      dup2\n        /* \"#utility.yul\":8296:8309   */\n      mload\n        /* \"#utility.yul\":8287:8309   */\n      swap1\n      pop\n        /* \"#utility.yul\":8318:8351   */\n      tag_248\n        /* \"#utility.yul\":8345:8350   */\n      dup2\n        /* \"#utility.yul\":8318:8351   */\n      tag_148\n      jump\t// in\n    tag_248:\n        /* \"#utility.yul\":8214:8357   */\n      swap3\n      swap2\n      pop\n      pop\n      jump\t// out\n        /* \"#utility.yul\":8363:8714   */\n    tag_84:\n        /* \"#utility.yul\":8433:8439   */\n      0x00\n        /* \"#utility.yul\":8482:8484   */\n      0x20\n        /* \"#utility.yul\":8470:8479   */\n      dup3\n        /* \"#utility.yul\":8461:8468   */\n      dup5\n        /* \"#utility.yul\":8457:8480   */\n      sub\n        /* \"#utility.yul\":8453:8485   */\n      slt\n        /* \"#utility.yul\":8450:8569   */\n      iszero\n      tag_250\n      jumpi\n        /* \"#utility.yul\":8488:8567   */\n      tag_251\n      tag_129\n      jump\t// in\n    tag_251:\n        /* \"#utility.yul\":8450:8569   */\n    tag_250:\n        /* \"#utility.yul\":8608:8609   */\n      0x00\n        /* \"#utility.yul\":8633:8697   */\n      tag_252\n        /* \"#utility.yul\":8689:8696   */\n      dup5\n        /* \"#utility.yul\":8680:8686   */\n      dup3\n        /* \"#utility.yul\":8669:8678   */\n      dup6\n        /* \"#utility.yul\":8665:8687   */\n      add\n        /* \"#utility.yul\":8633:8697   */\n      tag_155\n      jump\t// in\n    tag_252:\n        /* \"#utility.yul\":8623:8697   */\n      swap2\n      pop\n        /* \"#utility.yul\":8579:8707   */\n      pop\n        /* \"#utility.yul\":8363:8714   */\n      swap3\n      swap2\n      pop\n      pop\n      jump\t// out\n        /* \"#utility.yul\":8720:8902   */\n    tag_156:\n        /* \"#utility.yul\":8860:8894   */\n      0x4f6e6c7920746865207665726966696564206f776e65722063616e206c697374\n        /* \"#utility.yul\":8856:8857   */\n      0x00\n        /* \"#utility.yul\":8848:8854   */\n      dup3\n        /* \"#utility.yul\":8844:8858   */\n      add\n        /* \"#utility.yul\":8837:8895   */\n      mstore\n        /* \"#utility.yul\":8720:8902   */\n      pop\n      jump\t// out\n        /* \"#utility.yul\":8908:9274   */\n    tag_157:\n        /* \"#utility.yul\":9050:9053   */\n      0x00\n        /* \"#utility.yul\":9071:9138   */\n      tag_255\n        /* \"#utility.yul\":9135:9137   */\n      0x20\n        /* \"#utility.yul\":9130:9133   */\n      dup4\n        /* \"#utility.yul\":9071:9138   */\n      tag_150\n      jump\t// in\n    tag_255:\n        /* \"#utility.yul\":9064:9138   */\n      swap2\n      pop\n        /* \"#utility.yul\":9147:9240   */\n      tag_256\n        /* \"#utility.yul\":9236:9239   */\n      dup3\n        /* \"#utility.yul\":9147:9240   */\n      tag_156\n      jump\t// in\n    tag_256:\n        /* \"#utility.yul\":9265:9267   */\n      0x20\n        /* \"#utility.yul\":9260:9263   */\n      dup3\n        /* \"#utility.yul\":9256:9268   */\n      add\n        /* \"#utility.yul\":9249:9268   */\n      swap1\n      pop\n        /* \"#utility.yul\":8908:9274   */\n      swap2\n      swap1\n      pop\n      jump\t// out\n        /* \"#utility.yul\":9280:9699   */\n    tag_87:\n        /* \"#utility.yul\":9446:9450   */\n      0x00\n        /* \"#utility.yul\":9484:9486   */\n      0x20\n        /* \"#utility.yul\":9473:9482   */\n      dup3\n        /* \"#utility.yul\":9469:9487   */\n      add\n        /* \"#utility.yul\":9461:9487   */\n      swap1\n      pop\n        /* \"#utility.yul\":9533:9542   */\n      dup2\n        /* \"#utility.yul\":9527:9531   */\n      dup2\n        /* \"#utility.yul\":9523:9543   */\n      sub\n        /* \"#utility.yul\":9519:9520   */\n      0x00\n        /* \"#utility.yul\":9508:9517   */\n      dup4\n        /* \"#utility.yul\":9504:9521   */\n      add\n        /* \"#utility.yul\":9497:9544   */\n      mstore\n        /* \"#utility.yul\":9561:9692   */\n      tag_258\n        /* \"#utility.yul\":9687:9691   */\n      dup2\n        /* \"#utility.yul\":9561:9692   */\n      tag_157\n      jump\t// in\n    tag_258:\n        /* \"#utility.yul\":9553:9692   */\n      swap1\n      pop\n        /* \"#utility.yul\":9280:9699   */\n      swap2\n      swap1\n      pop\n      jump\t// out\n        /* \"#utility.yul\":9705:9871   */\n    tag_158:\n        /* \"#utility.yul\":9845:9863   */\n      0x546f6b656e206e6f74206c697374656400000000000000000000000000000000\n        /* \"#utility.yul\":9841:9842   */\n      0x00\n        /* \"#utility.yul\":9833:9839   */\n      dup3\n        /* \"#utility.yul\":9829:9843   */\n      add\n        /* \"#utility.yul\":9822:9864   */\n      mstore\n        /* \"#utility.yul\":9705:9871   */\n      pop\n      jump\t// out\n        /* \"#utility.yul\":9877:10243   */\n    tag_159:\n        /* \"#utility.yul\":10019:10022   */\n      0x00\n        /* \"#utility.yul\":10040:10107   */\n      tag_261\n        /* \"#utility.yul\":10104:10106   */\n      0x10\n        /* \"#utility.yul\":10099:10102   */\n      dup4\n        /* \"#utility.yul\":10040:10107   */\n      tag_150\n      jump\t// in\n    tag_261:\n        /* \"#utility.yul\":10033:10107   */\n      swap2\n      pop\n        /* \"#utility.yul\":10116:10209   */\n      tag_262\n        /* \"#utility.yul\":10205:10208   */\n      dup3\n        /* \"#utility.yul\":10116:10209   */\n      tag_158\n      jump\t// in\n    tag_262:\n        /* \"#utility.yul\":10234:10236   */\n      0x20\n        /* \"#utility.yul\":10229:10232   */\n      dup3\n        /* \"#utility.yul\":10225:10237   */\n      add\n        /* \"#utility.yul\":10218:10237   */\n      swap1\n      pop\n        /* \"#utility.yul\":9877:10243   */\n      swap2\n      swap1\n      pop\n      jump\t// out\n        /* \"#utility.yul\":10249:10668   */\n    tag_95:\n        /* \"#utility.yul\":10415:10419   */\n      0x00\n        /* \"#utility.yul\":10453:10455   */\n      0x20\n        /* \"#utility.yul\":10442:10451   */\n      dup3\n        /* \"#utility.yul\":10438:10456   */\n      add\n        /* \"#utility.yul\":10430:10456   */\n      swap1\n      pop\n        /* \"#utility.yul\":10502:10511   */\n      dup2\n        /* \"#utility.yul\":10496:10500   */\n      dup2\n        /* \"#utility.yul\":10492:10512   */\n      sub\n        /* \"#utility.yul\":10488:10489   */\n      0x00\n        /* \"#utility.yul\":10477:10486   */\n      dup4\n        /* \"#utility.yul\":10473:10490   */\n      add\n        /* \"#utility.yul\":10466:10513   */\n      mstore\n        /* \"#utility.yul\":10530:10661   */\n      tag_264\n        /* \"#utility.yul\":10656:10660   */\n      dup2\n        /* \"#utility.yul\":10530:10661   */\n      tag_159\n      jump\t// in\n    tag_264:\n        /* \"#utility.yul\":10522:10661   */\n      swap1\n      pop\n        /* \"#utility.yul\":10249:10668   */\n      swap2\n      swap1\n      pop\n      jump\t// out\n        /* \"#utility.yul\":10674:10848   */\n    tag_160:\n        /* \"#utility.yul\":10814:10840   */\n      0x496e636f7272656374207061796d656e7420616d6f756e740000000000000000\n        /* \"#utility.yul\":10810:10811   */\n      0x00\n        /* \"#utility.yul\":10802:10808   */\n      dup3\n        /* \"#utility.yul\":10798:10812   */\n      add\n        /* \"#utility.yul\":10791:10841   */\n      mstore\n        /* \"#utility.yul\":10674:10848   */\n      pop\n      jump\t// out\n        /* \"#utility.yul\":10854:11220   */\n    tag_161:\n        /* \"#utility.yul\":10996:10999   */\n      0x00\n        /* \"#utility.yul\":11017:11084   */\n      tag_267\n        /* \"#utility.yul\":11081:11083   */\n      0x18\n        /* \"#utility.yul\":11076:11079   */\n      dup4\n        /* \"#utility.yul\":11017:11084   */\n      tag_150\n      jump\t// in\n    tag_267:\n        /* \"#utility.yul\":11010:11084   */\n      swap2\n      pop\n        /* \"#utility.yul\":11093:11186   */\n      tag_268\n        /* \"#utility.yul\":11182:11185   */\n      dup3\n        /* \"#utility.yul\":11093:11186   */\n      tag_160\n      jump\t// in\n    tag_268:\n        /* \"#utility.yul\":11211:11213   */\n      0x20\n        /* \"#utility.yul\":11206:11209   */\n      dup3\n        /* \"#utility.yul\":11202:11214   */\n      add\n        /* \"#utility.yul\":11195:11214   */\n      swap1\n      pop\n        /* \"#utility.yul\":10854:11220   */\n      swap2\n      swap1\n      pop\n      jump\t// out\n        /* \"#utility.yul\":11226:11645   */\n    tag_98:\n        /* \"#utility.yul\":11392:11396   */\n      0x00\n        /* \"#utility.yul\":11430:11432   */\n      0x20\n        /* \"#utility.yul\":11419:11428   */\n      dup3\n        /* \"#utility.yul\":11415:11433   */\n      add\n        /* \"#utility.yul\":11407:11433   */\n      swap1\n      pop\n        /* \"#utility.yul\":11479:11488   */\n      dup2\n        /* \"#utility.yul\":11473:11477   */\n      dup2\n        /* \"#utility.yul\":11469:11489   */\n      sub\n        /* \"#utility.yul\":11465:11466   */\n      0x00\n        /* \"#utility.yul\":11454:11463   */\n      dup4\n        /* \"#utility.yul\":11450:11467   */\n      add\n        /* \"#utility.yul\":11443:11490   */\n      mstore\n        /* \"#utility.yul\":11507:11638   */\n      tag_270\n        /* \"#utility.yul\":11633:11637   */\n      dup2\n        /* \"#utility.yul\":11507:11638   */\n      tag_161\n      jump\t// in\n    tag_270:\n        /* \"#utility.yul\":11499:11638   */\n      swap1\n      pop\n        /* \"#utility.yul\":11226:11645   */\n      swap2\n      swap1\n      pop\n      jump\t// out\n        /* \"#utility.yul\":11651:11832   */\n    tag_162:\n        /* \"#utility.yul\":11791:11824   */\n      0x5265656e7472616e637947756172643a207265656e7472616e742063616c6c00\n        /* \"#utility.yul\":11787:11788   */\n      0x00\n        /* \"#utility.yul\":11779:11785   */\n      dup3\n        /* \"#utility.yul\":11775:11789   */\n      add\n        /* \"#utility.yul\":11768:11825   */\n      mstore\n        /* \"#utility.yul\":11651:11832   */\n      pop\n      jump\t// out\n        /* \"#utility.yul\":11838:12204   */\n    tag_163:\n        /* \"#utility.yul\":11980:11983   */\n      0x00\n        /* \"#utility.yul\":12001:12068   */\n      tag_273\n        /* \"#utility.yul\":12065:12067   */\n      0x1f\n        /* \"#utility.yul\":12060:12063   */\n      dup4\n        /* \"#utility.yul\":12001:12068   */\n      tag_150\n      jump\t// in\n    tag_273:\n        /* \"#utility.yul\":11994:12068   */\n      swap2\n      pop\n        /* \"#utility.yul\":12077:12170   */\n      tag_274\n        /* \"#utility.yul\":12166:12169   */\n      dup3\n        /* \"#utility.yul\":12077:12170   */\n      tag_162\n      jump\t// in\n    tag_274:\n        /* \"#utility.yul\":12195:12197   */\n      0x20\n        /* \"#utility.yul\":12190:12193   */\n      dup3\n        /* \"#utility.yul\":12186:12198   */\n      add\n        /* \"#utility.yul\":12179:12198   */\n      swap1\n      pop\n        /* \"#utility.yul\":11838:12204   */\n      swap2\n      swap1\n      pop\n      jump\t// out\n        /* \"#utility.yul\":12210:12629   */\n    tag_125:\n        /* \"#utility.yul\":12376:12380   */\n      0x00\n        /* \"#utility.yul\":12414:12416   */\n      0x20\n        /* \"#utility.yul\":12403:12412   */\n      dup3\n        /* \"#utility.yul\":12399:12417   */\n      add\n        /* \"#utility.yul\":12391:12417   */\n      swap1\n      pop\n        /* \"#utility.yul\":12463:12472   */\n      dup2\n        /* \"#utility.yul\":12457:12461   */\n      dup2\n        /* \"#utility.yul\":12453:12473   */\n      sub\n        /* \"#utility.yul\":12449:12450   */\n      0x00\n        /* \"#utility.yul\":12438:12447   */\n      dup4\n        /* \"#utility.yul\":12434:12451   */\n      add\n        /* \"#utility.yul\":12427:12474   */\n      mstore\n        /* \"#utility.yul\":12491:12622   */\n      tag_276\n        /* \"#utility.yul\":12617:12621   */\n      dup2\n        /* \"#utility.yul\":12491:12622   */\n      tag_163\n      jump\t// in\n    tag_276:\n        /* \"#utility.yul\":12483:12622   */\n      swap1\n      pop\n        /* \"#utility.yul\":12210:12629   */\n      swap2\n      swap1\n      pop\n      jump\t// out\n\n    auxdata: 0xa26469706673582212206b6e4969e5d808d061423c959a1dd60ccac8f28befd376cd8b92c5126712a3b464736f6c634300081a0033\n}\n",
				"bytecode": {
					"linkReferences": {},
					"object": "608060405234801561000f575f80fd5b506040516116263803806116268339818101604052810190610031919061033b565b335f73ffffffffffffffffffffffffffffffffffffffff168173ffffffffffffffffffffffffffffffffffffffff16036100a2575f6040517f1e4fbdf70000000000000000000000000000000000000000000000000000000081526004016100999190610388565b60405180910390fd5b6100b18161021c60201b60201c565b50600180819055505f73ffffffffffffffffffffffffffffffffffffffff168273ffffffffffffffffffffffffffffffffffffffff1603610127576040517f08c379a000000000000000000000000000000000000000000000000000000000815260040161011e906103fb565b60405180910390fd5b5f73ffffffffffffffffffffffffffffffffffffffff168173ffffffffffffffffffffffffffffffffffffffff1603610195576040517f08c379a000000000000000000000000000000000000000000000000000000000815260040161018c90610463565b60405180910390fd5b8160035f6101000a81548173ffffffffffffffffffffffffffffffffffffffff021916908373ffffffffffffffffffffffffffffffffffffffff1602179055508060045f6101000a81548173ffffffffffffffffffffffffffffffffffffffff021916908373ffffffffffffffffffffffffffffffffffffffff1602179055505050610481565b5f805f9054906101000a900473ffffffffffffffffffffffffffffffffffffffff169050815f806101000a81548173ffffffffffffffffffffffffffffffffffffffff021916908373ffffffffffffffffffffffffffffffffffffffff1602179055508173ffffffffffffffffffffffffffffffffffffffff168173ffffffffffffffffffffffffffffffffffffffff167f8be0079c531659141344cd1fd0a4f28419497f9722a3daafe3b4186f6b6457e060405160405180910390a35050565b5f80fd5b5f73ffffffffffffffffffffffffffffffffffffffff82169050919050565b5f61030a826102e1565b9050919050565b61031a81610300565b8114610324575f80fd5b50565b5f8151905061033581610311565b92915050565b5f8060408385031215610351576103506102dd565b5b5f61035e85828601610327565b925050602061036f85828601610327565b9150509250929050565b61038281610300565b82525050565b5f60208201905061039b5f830184610379565b92915050565b5f82825260208201905092915050565b7f496e76616c6964204d696e74436f6e74726163740000000000000000000000005f82015250565b5f6103e56014836103a1565b91506103f0826103b1565b602082019050919050565b5f6020820190508181035f830152610412816103d9565b9050919050565b7f496e76616c6964204f776e657273686970436f6e74726f6c00000000000000005f82015250565b5f61044d6018836103a1565b915061045882610419565b602082019050919050565b5f6020820190508181035f83015261047a81610441565b9050919050565b6111988061048e5f395ff3fe608060405260043610610090575f3560e01c8063d0b6b6db11610058578063d0b6b6db14610162578063de74e57b1461018c578063e80d7fec146101c9578063efef39a1146101f1578063f2fde38b1461020d57610090565b8063107a274a14610094578063305a67a8146100d0578063715018a6146100f85780638da5cb5b1461010e578063ab80eee414610138575b5f80fd5b34801561009f575f80fd5b506100ba60048036038101906100b59190610c2d565b610235565b6040516100c79190610cd3565b60405180910390f35b3480156100db575f80fd5b506100f660048036038101906100f19190610c2d565b6102be565b005b348015610103575f80fd5b5061010c610435565b005b348015610119575f80fd5b50610122610448565b60405161012f9190610cfb565b60405180910390f35b348015610143575f80fd5b5061014c61046f565b6040516101599190610d6f565b60405180910390f35b34801561016d575f80fd5b50610176610494565b6040516101839190610da8565b60405180910390f35b348015610197575f80fd5b506101b260048036038101906101ad9190610c2d565b6104b9565b6040516101c0929190610dd0565b60405180910390f35b3480156101d4575f80fd5b506101ef60048036038101906101ea9190610df7565b6104f8565b005b61020b60048036038101906102069190610c2d565b61071f565b005b348015610218575f80fd5b50610233600480360381019061022e9190610e5f565b61099d565b005b61023d610bc8565b60025f8381526020019081526020015f206040518060400160405290815f8201548152602001600182015f9054906101000a900473ffffffffffffffffffffffffffffffffffffffff1673ffffffffffffffffffffffffffffffffffffffff1673ffffffffffffffffffffffffffffffffffffffff16815250509050919050565b5f60025f8381526020019081526020015f206040518060400160405290815f8201548152602001600182015f9054906101000a900473ffffffffffffffffffffffffffffffffffffffff1673ffffffffffffffffffffffffffffffffffffffff1673ffffffffffffffffffffffffffffffffffffffff168152505090503373ffffffffffffffffffffffffffffffffffffffff16816020015173ffffffffffffffffffffffffffffffffffffffff16146103ad576040517f08c379a00000000000000000000000000000000000000000000000000000000081526004016103a490610ee4565b60405180910390fd5b60025f8381526020019081526020015f205f8082015f9055600182015f6101000a81549073ffffffffffffffffffffffffffffffffffffffff021916905550503373ffffffffffffffffffffffffffffffffffffffff16827f26deca31ff8139a06c52453ce8985d34f7648a6d9af1d283c4063d052c355a0f60405160405180910390a35050565b61043d610a21565b6104465f610aa8565b565b5f805f9054906101000a900473ffffffffffffffffffffffffffffffffffffffff16905090565b60045f9054906101000a900473ffffffffffffffffffffffffffffffffffffffff1681565b60035f9054906101000a900473ffffffffffffffffffffffffffffffffffffffff1681565b6002602052805f5260405f205f91509050805f015490806001015f9054906101000a900473ffffffffffffffffffffffffffffffffffffffff16905082565b5f811161053a576040517f08c379a000000000000000000000000000000000000000000000000000000000815260040161053190610f4c565b60405180910390fd5b3373ffffffffffffffffffffffffffffffffffffffff1660045f9054906101000a900473ffffffffffffffffffffffffffffffffffffffff1673ffffffffffffffffffffffffffffffffffffffff16625a9931846040518263ffffffff1660e01b81526004016105aa9190610f6a565b602060405180830381865afa1580156105c5573d5f803e3d5ffd5b505050506040513d601f19601f820116820180604052508101906105e99190610f97565b73ffffffffffffffffffffffffffffffffffffffff161461063f576040517f08c379a00000000000000000000000000000000000000000000000000000000081526004016106369061100c565b60405180910390fd5b60405180604001604052808281526020013373ffffffffffffffffffffffffffffffffffffffff1681525060025f8481526020019081526020015f205f820151815f01556020820151816001015f6101000a81548173ffffffffffffffffffffffffffffffffffffffff021916908373ffffffffffffffffffffffffffffffffffffffff1602179055509050503373ffffffffffffffffffffffffffffffffffffffff16827f50955776c5778c3b7d968d86d8c51fb6b29a7a74c20866b533268e209fc08343836040516107139190610f6a565b60405180910390a35050565b610727610b69565b5f60025f8381526020019081526020015f206040518060400160405290815f8201548152602001600182015f9054906101000a900473ffffffffffffffffffffffffffffffffffffffff1673ffffffffffffffffffffffffffffffffffffffff1673ffffffffffffffffffffffffffffffffffffffff168152505090505f815f0151116107e9576040517f08c379a00000000000000000000000000000000000000000000000000000000081526004016107e090611074565b60405180910390fd5b805f0151341461082e576040517f08c379a0000000000000000000000000000000000000000000000000000000008152600401610825906110dc565b60405180910390fd5b60025f8381526020019081526020015f205f8082015f9055600182015f6101000a81549073ffffffffffffffffffffffffffffffffffffffff02191690555050806020015173ffffffffffffffffffffffffffffffffffffffff166108fc3490811502906040515f60405180830381858888f193505050501580156108b5573d5f803e3d5ffd5b5060045f9054906101000a900473ffffffffffffffffffffffffffffffffffffffff1673ffffffffffffffffffffffffffffffffffffffff1663e43059e583336040518363ffffffff1660e01b8152600401610912929190610dd0565b5f604051808303815f87803b158015610929575f80fd5b505af115801561093b573d5f803e3d5ffd5b505050503373ffffffffffffffffffffffffffffffffffffffff16827ffd51b2c9f55c42d2b72ac683526519563be02fc0107f034ff430c05185ff1b66835f01516040516109899190610f6a565b60405180910390a35061099a610bb8565b50565b6109a5610a21565b5f73ffffffffffffffffffffffffffffffffffffffff168173ffffffffffffffffffffffffffffffffffffffff1603610a15575f6040517f1e4fbdf7000000000000000000000000000000000000000000000000000000008152600401610a0c9190610cfb565b60405180910390fd5b610a1e81610aa8565b50565b610a29610bc1565b73ffffffffffffffffffffffffffffffffffffffff16610a47610448565b73ffffffffffffffffffffffffffffffffffffffff1614610aa657610a6a610bc1565b6040517f118cdaa7000000000000000000000000000000000000000000000000000000008152600401610a9d9190610cfb565b60405180910390fd5b565b5f805f9054906101000a900473ffffffffffffffffffffffffffffffffffffffff169050815f806101000a81548173ffffffffffffffffffffffffffffffffffffffff021916908373ffffffffffffffffffffffffffffffffffffffff1602179055508173ffffffffffffffffffffffffffffffffffffffff168173ffffffffffffffffffffffffffffffffffffffff167f8be0079c531659141344cd1fd0a4f28419497f9722a3daafe3b4186f6b6457e060405160405180910390a35050565b600260015403610bae576040517f08c379a0000000000000000000000000000000000000000000000000000000008152600401610ba590611144565b60405180910390fd5b6002600181905550565b60018081905550565b5f33905090565b60405180604001604052805f81526020015f73ffffffffffffffffffffffffffffffffffffffff1681525090565b5f80fd5b5f819050919050565b610c0c81610bfa565b8114610c16575f80fd5b50565b5f81359050610c2781610c03565b92915050565b5f60208284031215610c4257610c41610bf6565b5b5f610c4f84828501610c19565b91505092915050565b610c6181610bfa565b82525050565b5f73ffffffffffffffffffffffffffffffffffffffff82169050919050565b5f610c9082610c67565b9050919050565b610ca081610c86565b82525050565b604082015f820151610cba5f850182610c58565b506020820151610ccd6020850182610c97565b50505050565b5f604082019050610ce65f830184610ca6565b92915050565b610cf581610c86565b82525050565b5f602082019050610d0e5f830184610cec565b92915050565b5f819050919050565b5f610d37610d32610d2d84610c67565b610d14565b610c67565b9050919050565b5f610d4882610d1d565b9050919050565b5f610d5982610d3e565b9050919050565b610d6981610d4f565b82525050565b5f602082019050610d825f830184610d60565b92915050565b5f610d9282610d3e565b9050919050565b610da281610d88565b82525050565b5f602082019050610dbb5f830184610d99565b92915050565b610dca81610bfa565b82525050565b5f604082019050610de35f830185610dc1565b610df06020830184610cec565b9392505050565b5f8060408385031215610e0d57610e0c610bf6565b5b5f610e1a85828601610c19565b9250506020610e2b85828601610c19565b9150509250929050565b610e3e81610c86565b8114610e48575f80fd5b50565b5f81359050610e5981610e35565b92915050565b5f60208284031215610e7457610e73610bf6565b5b5f610e8184828501610e4b565b91505092915050565b5f82825260208201905092915050565b7f596f7520617265206e6f74207468652073656c6c6572000000000000000000005f82015250565b5f610ece601683610e8a565b9150610ed982610e9a565b602082019050919050565b5f6020820190508181035f830152610efb81610ec2565b9050919050565b7f5072696365206d7573742062652067726561746572207468616e2030000000005f82015250565b5f610f36601c83610e8a565b9150610f4182610f02565b602082019050919050565b5f6020820190508181035f830152610f6381610f2a565b9050919050565b5f602082019050610f7d5f830184610dc1565b92915050565b5f81519050610f9181610e35565b92915050565b5f60208284031215610fac57610fab610bf6565b5b5f610fb984828501610f83565b91505092915050565b7f4f6e6c7920746865207665726966696564206f776e65722063616e206c6973745f82015250565b5f610ff6602083610e8a565b915061100182610fc2565b602082019050919050565b5f6020820190508181035f83015261102381610fea565b9050919050565b7f546f6b656e206e6f74206c6973746564000000000000000000000000000000005f82015250565b5f61105e601083610e8a565b91506110698261102a565b602082019050919050565b5f6020820190508181035f83015261108b81611052565b9050919050565b7f496e636f7272656374207061796d656e7420616d6f756e7400000000000000005f82015250565b5f6110c6601883610e8a565b91506110d182611092565b602082019050919050565b5f6020820190508181035f8301526110f3816110ba565b9050919050565b7f5265656e7472616e637947756172643a207265656e7472616e742063616c6c005f82015250565b5f61112e601f83610e8a565b9150611139826110fa565b602082019050919050565b5f6020820190508181035f83015261115b81611122565b905091905056fea26469706673582212206b6e4969e5d808d061423c959a1dd60ccac8f28befd376cd8b92c5126712a3b464736f6c634300081a0033",
					"opcodes": "PUSH1 0x80 PUSH1 0x40 MSTORE CALLVALUE DUP1 ISZERO PUSH2 0xF JUMPI PUSH0 DUP1 REVERT JUMPDEST POP PUSH1 0x40 MLOAD PUSH2 0x1626 CODESIZE SUB DUP1 PUSH2 0x1626 DUP4 CODECOPY DUP2 DUP2 ADD PUSH1 0x40 MSTORE DUP2 ADD SWAP1 PUSH2 0x31 SWAP2 SWAP1 PUSH2 0x33B JUMP JUMPDEST CALLER PUSH0 PUSH20 0xFFFFFFFFFFFFFFFFFFFFFFFFFFFFFFFFFFFFFFFF AND DUP2 PUSH20 0xFFFFFFFFFFFFFFFFFFFFFFFFFFFFFFFFFFFFFFFF AND SUB PUSH2 0xA2 JUMPI PUSH0 PUSH1 0x40 MLOAD PUSH32 0x1E4FBDF700000000000000000000000000000000000000000000000000000000 DUP2 MSTORE PUSH1 0x4 ADD PUSH2 0x99 SWAP2 SWAP1 PUSH2 0x388 JUMP JUMPDEST PUSH1 0x40 MLOAD DUP1 SWAP2 SUB SWAP1 REVERT JUMPDEST PUSH2 0xB1 DUP2 PUSH2 0x21C PUSH1 0x20 SHL PUSH1 0x20 SHR JUMP JUMPDEST POP PUSH1 0x1 DUP1 DUP2 SWAP1 SSTORE POP PUSH0 PUSH20 0xFFFFFFFFFFFFFFFFFFFFFFFFFFFFFFFFFFFFFFFF AND DUP3 PUSH20 0xFFFFFFFFFFFFFFFFFFFFFFFFFFFFFFFFFFFFFFFF AND SUB PUSH2 0x127 JUMPI PUSH1 0x40 MLOAD PUSH32 0x8C379A000000000000000000000000000000000000000000000000000000000 DUP2 MSTORE PUSH1 0x4 ADD PUSH2 0x11E SWAP1 PUSH2 0x3FB JUMP JUMPDEST PUSH1 0x40 MLOAD DUP1 SWAP2 SUB SWAP1 REVERT JUMPDEST PUSH0 PUSH20 0xFFFFFFFFFFFFFFFFFFFFFFFFFFFFFFFFFFFFFFFF AND DUP2 PUSH20 0xFFFFFFFFFFFFFFFFFFFFFFFFFFFFFFFFFFFFFFFF AND SUB PUSH2 0x195 JUMPI PUSH1 0x40 MLOAD PUSH32 0x8C379A000000000000000000000000000000000000000000000000000000000 DUP2 MSTORE PUSH1 0x4 ADD PUSH2 0x18C SWAP1 PUSH2 0x463 JUMP JUMPDEST PUSH1 0x40 MLOAD DUP1 SWAP2 SUB SWAP1 REVERT JUMPDEST DUP2 PUSH1 0x3 PUSH0 PUSH2 0x100 EXP DUP2 SLOAD DUP2 PUSH20 0xFFFFFFFFFFFFFFFFFFFFFFFFFFFFFFFFFFFFFFFF MUL NOT AND SWAP1 DUP4 PUSH20 0xFFFFFFFFFFFFFFFFFFFFFFFFFFFFFFFFFFFFFFFF AND MUL OR SWAP1 SSTORE POP DUP1 PUSH1 0x4 PUSH0 PUSH2 0x100 EXP DUP2 SLOAD DUP2 PUSH20 0xFFFFFFFFFFFFFFFFFFFFFFFFFFFFFFFFFFFFFFFF MUL NOT AND SWAP1 DUP4 PUSH20 0xFFFFFFFFFFFFFFFFFFFFFFFFFFFFFFFFFFFFFFFF AND MUL OR SWAP1 SSTORE POP POP POP PUSH2 0x481 JUMP JUMPDEST PUSH0 DUP1 PUSH0 SWAP1 SLOAD SWAP1 PUSH2 0x100 EXP SWAP1 DIV PUSH20 0xFFFFFFFFFFFFFFFFFFFFFFFFFFFFFFFFFFFFFFFF AND SWAP1 POP DUP2 PUSH0 DUP1 PUSH2 0x100 EXP DUP2 SLOAD DUP2 PUSH20 0xFFFFFFFFFFFFFFFFFFFFFFFFFFFFFFFFFFFFFFFF MUL NOT AND SWAP1 DUP4 PUSH20 0xFFFFFFFFFFFFFFFFFFFFFFFFFFFFFFFFFFFFFFFF AND MUL OR SWAP1 SSTORE POP DUP2 PUSH20 0xFFFFFFFFFFFFFFFFFFFFFFFFFFFFFFFFFFFFFFFF AND DUP2 PUSH20 0xFFFFFFFFFFFFFFFFFFFFFFFFFFFFFFFFFFFFFFFF AND PUSH32 0x8BE0079C531659141344CD1FD0A4F28419497F9722A3DAAFE3B4186F6B6457E0 PUSH1 0x40 MLOAD PUSH1 0x40 MLOAD DUP1 SWAP2 SUB SWAP1 LOG3 POP POP JUMP JUMPDEST PUSH0 DUP1 REVERT JUMPDEST PUSH0 PUSH20 0xFFFFFFFFFFFFFFFFFFFFFFFFFFFFFFFFFFFFFFFF DUP3 AND SWAP1 POP SWAP2 SWAP1 POP JUMP JUMPDEST PUSH0 PUSH2 0x30A DUP3 PUSH2 0x2E1 JUMP JUMPDEST SWAP1 POP SWAP2 SWAP1 POP JUMP JUMPDEST PUSH2 0x31A DUP2 PUSH2 0x300 JUMP JUMPDEST DUP2 EQ PUSH2 0x324 JUMPI PUSH0 DUP1 REVERT JUMPDEST POP JUMP JUMPDEST PUSH0 DUP2 MLOAD SWAP1 POP PUSH2 0x335 DUP2 PUSH2 0x311 JUMP JUMPDEST SWAP3 SWAP2 POP POP JUMP JUMPDEST PUSH0 DUP1 PUSH1 0x40 DUP4 DUP6 SUB SLT ISZERO PUSH2 0x351 JUMPI PUSH2 0x350 PUSH2 0x2DD JUMP JUMPDEST JUMPDEST PUSH0 PUSH2 0x35E DUP6 DUP3 DUP7 ADD PUSH2 0x327 JUMP JUMPDEST SWAP3 POP POP PUSH1 0x20 PUSH2 0x36F DUP6 DUP3 DUP7 ADD PUSH2 0x327 JUMP JUMPDEST SWAP2 POP POP SWAP3 POP SWAP3 SWAP1 POP JUMP JUMPDEST PUSH2 0x382 DUP2 PUSH2 0x300 JUMP JUMPDEST DUP3 MSTORE POP POP JUMP JUMPDEST PUSH0 PUSH1 0x20 DUP3 ADD SWAP1 POP PUSH2 0x39B PUSH0 DUP4 ADD DUP5 PUSH2 0x379 JUMP JUMPDEST SWAP3 SWAP2 POP POP JUMP JUMPDEST PUSH0 DUP3 DUP3 MSTORE PUSH1 0x20 DUP3 ADD SWAP1 POP SWAP3 SWAP2 POP POP JUMP JUMPDEST PUSH32 0x496E76616C6964204D696E74436F6E7472616374000000000000000000000000 PUSH0 DUP3 ADD MSTORE POP JUMP JUMPDEST PUSH0 PUSH2 0x3E5 PUSH1 0x14 DUP4 PUSH2 0x3A1 JUMP JUMPDEST SWAP2 POP PUSH2 0x3F0 DUP3 PUSH2 0x3B1 JUMP JUMPDEST PUSH1 0x20 DUP3 ADD SWAP1 POP SWAP2 SWAP1 POP JUMP JUMPDEST PUSH0 PUSH1 0x20 DUP3 ADD SWAP1 POP DUP2 DUP2 SUB PUSH0 DUP4 ADD MSTORE PUSH2 0x412 DUP2 PUSH2 0x3D9 JUMP JUMPDEST SWAP1 POP SWAP2 SWAP1 POP JUMP JUMPDEST PUSH32 0x496E76616C6964204F776E657273686970436F6E74726F6C0000000000000000 PUSH0 DUP3 ADD MSTORE POP JUMP JUMPDEST PUSH0 PUSH2 0x44D PUSH1 0x18 DUP4 PUSH2 0x3A1 JUMP JUMPDEST SWAP2 POP PUSH2 0x458 DUP3 PUSH2 0x419 JUMP JUMPDEST PUSH1 0x20 DUP3 ADD SWAP1 POP SWAP2 SWAP1 POP JUMP JUMPDEST PUSH0 PUSH1 0x20 DUP3 ADD SWAP1 POP DUP2 DUP2 SUB PUSH0 DUP4 ADD MSTORE PUSH2 0x47A DUP2 PUSH2 0x441 JUMP JUMPDEST SWAP1 POP SWAP2 SWAP1 POP JUMP JUMPDEST PUSH2 0x1198 DUP1 PUSH2 0x48E PUSH0 CODECOPY PUSH0 RETURN INVALID PUSH1 0x80 PUSH1 0x40 MSTORE PUSH1 0x4 CALLDATASIZE LT PUSH2 0x90 JUMPI PUSH0 CALLDATALOAD PUSH1 0xE0 SHR DUP1 PUSH4 0xD0B6B6DB GT PUSH2 0x58 JUMPI DUP1 PUSH4 0xD0B6B6DB EQ PUSH2 0x162 JUMPI DUP1 PUSH4 0xDE74E57B EQ PUSH2 0x18C JUMPI DUP1 PUSH4 0xE80D7FEC EQ PUSH2 0x1C9 JUMPI DUP1 PUSH4 0xEFEF39A1 EQ PUSH2 0x1F1 JUMPI DUP1 PUSH4 0xF2FDE38B EQ PUSH2 0x20D JUMPI PUSH2 0x90 JUMP JUMPDEST DUP1 PUSH4 0x107A274A EQ PUSH2 0x94 JUMPI DUP1 PUSH4 0x305A67A8 EQ PUSH2 0xD0 JUMPI DUP1 PUSH4 0x715018A6 EQ PUSH2 0xF8 JUMPI DUP1 PUSH4 0x8DA5CB5B EQ PUSH2 0x10E JUMPI DUP1 PUSH4 0xAB80EEE4 EQ PUSH2 0x138 JUMPI JUMPDEST PUSH0 DUP1 REVERT JUMPDEST CALLVALUE DUP1 ISZERO PUSH2 0x9F JUMPI PUSH0 DUP1 REVERT JUMPDEST POP PUSH2 0xBA PUSH1 0x4 DUP1 CALLDATASIZE SUB DUP2 ADD SWAP1 PUSH2 0xB5 SWAP2 SWAP1 PUSH2 0xC2D JUMP JUMPDEST PUSH2 0x235 JUMP JUMPDEST PUSH1 0x40 MLOAD PUSH2 0xC7 SWAP2 SWAP1 PUSH2 0xCD3 JUMP JUMPDEST PUSH1 0x40 MLOAD DUP1 SWAP2 SUB SWAP1 RETURN JUMPDEST CALLVALUE DUP1 ISZERO PUSH2 0xDB JUMPI PUSH0 DUP1 REVERT JUMPDEST POP PUSH2 0xF6 PUSH1 0x4 DUP1 CALLDATASIZE SUB DUP2 ADD SWAP1 PUSH2 0xF1 SWAP2 SWAP1 PUSH2 0xC2D JUMP JUMPDEST PUSH2 0x2BE JUMP JUMPDEST STOP JUMPDEST CALLVALUE DUP1 ISZERO PUSH2 0x103 JUMPI PUSH0 DUP1 REVERT JUMPDEST POP PUSH2 0x10C PUSH2 0x435 JUMP JUMPDEST STOP JUMPDEST CALLVALUE DUP1 ISZERO PUSH2 0x119 JUMPI PUSH0 DUP1 REVERT JUMPDEST POP PUSH2 0x122 PUSH2 0x448 JUMP JUMPDEST PUSH1 0x40 MLOAD PUSH2 0x12F SWAP2 SWAP1 PUSH2 0xCFB JUMP JUMPDEST PUSH1 0x40 MLOAD DUP1 SWAP2 SUB SWAP1 RETURN JUMPDEST CALLVALUE DUP1 ISZERO PUSH2 0x143 JUMPI PUSH0 DUP1 REVERT JUMPDEST POP PUSH2 0x14C PUSH2 0x46F JUMP JUMPDEST PUSH1 0x40 MLOAD PUSH2 0x159 SWAP2 SWAP1 PUSH2 0xD6F JUMP JUMPDEST PUSH1 0x40 MLOAD DUP1 SWAP2 SUB SWAP1 RETURN JUMPDEST CALLVALUE DUP1 ISZERO PUSH2 0x16D JUMPI PUSH0 DUP1 REVERT JUMPDEST POP PUSH2 0x176 PUSH2 0x494 JUMP JUMPDEST PUSH1 0x40 MLOAD PUSH2 0x183 SWAP2 SWAP1 PUSH2 0xDA8 JUMP JUMPDEST PUSH1 0x40 MLOAD DUP1 SWAP2 SUB SWAP1 RETURN JUMPDEST CALLVALUE DUP1 ISZERO PUSH2 0x197 JUMPI PUSH0 DUP1 REVERT JUMPDEST POP PUSH2 0x1B2 PUSH1 0x4 DUP1 CALLDATASIZE SUB DUP2 ADD SWAP1 PUSH2 0x1AD SWAP2 SWAP1 PUSH2 0xC2D JUMP JUMPDEST PUSH2 0x4B9 JUMP JUMPDEST PUSH1 0x40 MLOAD PUSH2 0x1C0 SWAP3 SWAP2 SWAP1 PUSH2 0xDD0 JUMP JUMPDEST PUSH1 0x40 MLOAD DUP1 SWAP2 SUB SWAP1 RETURN JUMPDEST CALLVALUE DUP1 ISZERO PUSH2 0x1D4 JUMPI PUSH0 DUP1 REVERT JUMPDEST POP PUSH2 0x1EF PUSH1 0x4 DUP1 CALLDATASIZE SUB DUP2 ADD SWAP1 PUSH2 0x1EA SWAP2 SWAP1 PUSH2 0xDF7 JUMP JUMPDEST PUSH2 0x4F8 JUMP JUMPDEST STOP JUMPDEST PUSH2 0x20B PUSH1 0x4 DUP1 CALLDATASIZE SUB DUP2 ADD SWAP1 PUSH2 0x206 SWAP2 SWAP1 PUSH2 0xC2D JUMP JUMPDEST PUSH2 0x71F JUMP JUMPDEST STOP JUMPDEST CALLVALUE DUP1 ISZERO PUSH2 0x218 JUMPI PUSH0 DUP1 REVERT JUMPDEST POP PUSH2 0x233 PUSH1 0x4 DUP1 CALLDATASIZE SUB DUP2 ADD SWAP1 PUSH2 0x22E SWAP2 SWAP1 PUSH2 0xE5F JUMP JUMPDEST PUSH2 0x99D JUMP JUMPDEST STOP JUMPDEST PUSH2 0x23D PUSH2 0xBC8 JUMP JUMPDEST PUSH1 0x2 PUSH0 DUP4 DUP2 MSTORE PUSH1 0x20 ADD SWAP1 DUP2 MSTORE PUSH1 0x20 ADD PUSH0 KECCAK256 PUSH1 0x40 MLOAD DUP1 PUSH1 0x40 ADD PUSH1 0x40 MSTORE SWAP1 DUP2 PUSH0 DUP3 ADD SLOAD DUP2 MSTORE PUSH1 0x20 ADD PUSH1 0x1 DUP3 ADD PUSH0 SWAP1 SLOAD SWAP1 PUSH2 0x100 EXP SWAP1 DIV PUSH20 0xFFFFFFFFFFFFFFFFFFFFFFFFFFFFFFFFFFFFFFFF AND PUSH20 0xFFFFFFFFFFFFFFFFFFFFFFFFFFFFFFFFFFFFFFFF AND PUSH20 0xFFFFFFFFFFFFFFFFFFFFFFFFFFFFFFFFFFFFFFFF AND DUP2 MSTORE POP POP SWAP1 POP SWAP2 SWAP1 POP JUMP JUMPDEST PUSH0 PUSH1 0x2 PUSH0 DUP4 DUP2 MSTORE PUSH1 0x20 ADD SWAP1 DUP2 MSTORE PUSH1 0x20 ADD PUSH0 KECCAK256 PUSH1 0x40 MLOAD DUP1 PUSH1 0x40 ADD PUSH1 0x40 MSTORE SWAP1 DUP2 PUSH0 DUP3 ADD SLOAD DUP2 MSTORE PUSH1 0x20 ADD PUSH1 0x1 DUP3 ADD PUSH0 SWAP1 SLOAD SWAP1 PUSH2 0x100 EXP SWAP1 DIV PUSH20 0xFFFFFFFFFFFFFFFFFFFFFFFFFFFFFFFFFFFFFFFF AND PUSH20 0xFFFFFFFFFFFFFFFFFFFFFFFFFFFFFFFFFFFFFFFF AND PUSH20 0xFFFFFFFFFFFFFFFFFFFFFFFFFFFFFFFFFFFFFFFF AND DUP2 MSTORE POP POP SWAP1 POP CALLER PUSH20 0xFFFFFFFFFFFFFFFFFFFFFFFFFFFFFFFFFFFFFFFF AND DUP2 PUSH1 0x20 ADD MLOAD PUSH20 0xFFFFFFFFFFFFFFFFFFFFFFFFFFFFFFFFFFFFFFFF AND EQ PUSH2 0x3AD JUMPI PUSH1 0x40 MLOAD PUSH32 0x8C379A000000000000000000000000000000000000000000000000000000000 DUP2 MSTORE PUSH1 0x4 ADD PUSH2 0x3A4 SWAP1 PUSH2 0xEE4 JUMP JUMPDEST PUSH1 0x40 MLOAD DUP1 SWAP2 SUB SWAP1 REVERT JUMPDEST PUSH1 0x2 PUSH0 DUP4 DUP2 MSTORE PUSH1 0x20 ADD SWAP1 DUP2 MSTORE PUSH1 0x20 ADD PUSH0 KECCAK256 PUSH0 DUP1 DUP3 ADD PUSH0 SWAP1 SSTORE PUSH1 0x1 DUP3 ADD PUSH0 PUSH2 0x100 EXP DUP2 SLOAD SWAP1 PUSH20 0xFFFFFFFFFFFFFFFFFFFFFFFFFFFFFFFFFFFFFFFF MUL NOT AND SWAP1 SSTORE POP POP CALLER PUSH20 0xFFFFFFFFFFFFFFFFFFFFFFFFFFFFFFFFFFFFFFFF AND DUP3 PUSH32 0x26DECA31FF8139A06C52453CE8985D34F7648A6D9AF1D283C4063D052C355A0F PUSH1 0x40 MLOAD PUSH1 0x40 MLOAD DUP1 SWAP2 SUB SWAP1 LOG3 POP POP JUMP JUMPDEST PUSH2 0x43D PUSH2 0xA21 JUMP JUMPDEST PUSH2 0x446 PUSH0 PUSH2 0xAA8 JUMP JUMPDEST JUMP JUMPDEST PUSH0 DUP1 PUSH0 SWAP1 SLOAD SWAP1 PUSH2 0x100 EXP SWAP1 DIV PUSH20 0xFFFFFFFFFFFFFFFFFFFFFFFFFFFFFFFFFFFFFFFF AND SWAP1 POP SWAP1 JUMP JUMPDEST PUSH1 0x4 PUSH0 SWAP1 SLOAD SWAP1 PUSH2 0x100 EXP SWAP1 DIV PUSH20 0xFFFFFFFFFFFFFFFFFFFFFFFFFFFFFFFFFFFFFFFF AND DUP2 JUMP JUMPDEST PUSH1 0x3 PUSH0 SWAP1 SLOAD SWAP1 PUSH2 0x100 EXP SWAP1 DIV PUSH20 0xFFFFFFFFFFFFFFFFFFFFFFFFFFFFFFFFFFFFFFFF AND DUP2 JUMP JUMPDEST PUSH1 0x2 PUSH1 0x20 MSTORE DUP1 PUSH0 MSTORE PUSH1 0x40 PUSH0 KECCAK256 PUSH0 SWAP2 POP SWAP1 POP DUP1 PUSH0 ADD SLOAD SWAP1 DUP1 PUSH1 0x1 ADD PUSH0 SWAP1 SLOAD SWAP1 PUSH2 0x100 EXP SWAP1 DIV PUSH20 0xFFFFFFFFFFFFFFFFFFFFFFFFFFFFFFFFFFFFFFFF AND SWAP1 POP DUP3 JUMP JUMPDEST PUSH0 DUP2 GT PUSH2 0x53A JUMPI PUSH1 0x40 MLOAD PUSH32 0x8C379A000000000000000000000000000000000000000000000000000000000 DUP2 MSTORE PUSH1 0x4 ADD PUSH2 0x531 SWAP1 PUSH2 0xF4C JUMP JUMPDEST PUSH1 0x40 MLOAD DUP1 SWAP2 SUB SWAP1 REVERT JUMPDEST CALLER PUSH20 0xFFFFFFFFFFFFFFFFFFFFFFFFFFFFFFFFFFFFFFFF AND PUSH1 0x4 PUSH0 SWAP1 SLOAD SWAP1 PUSH2 0x100 EXP SWAP1 DIV PUSH20 0xFFFFFFFFFFFFFFFFFFFFFFFFFFFFFFFFFFFFFFFF AND PUSH20 0xFFFFFFFFFFFFFFFFFFFFFFFFFFFFFFFFFFFFFFFF AND PUSH3 0x5A9931 DUP5 PUSH1 0x40 MLOAD DUP3 PUSH4 0xFFFFFFFF AND PUSH1 0xE0 SHL DUP2 MSTORE PUSH1 0x4 ADD PUSH2 0x5AA SWAP2 SWAP1 PUSH2 0xF6A JUMP JUMPDEST PUSH1 0x20 PUSH1 0x40 MLOAD DUP1 DUP4 SUB DUP2 DUP7 GAS STATICCALL ISZERO DUP1 ISZERO PUSH2 0x5C5 JUMPI RETURNDATASIZE PUSH0 DUP1 RETURNDATACOPY RETURNDATASIZE PUSH0 REVERT JUMPDEST POP POP POP POP PUSH1 0x40 MLOAD RETURNDATASIZE PUSH1 0x1F NOT PUSH1 0x1F DUP3 ADD AND DUP3 ADD DUP1 PUSH1 0x40 MSTORE POP DUP2 ADD SWAP1 PUSH2 0x5E9 SWAP2 SWAP1 PUSH2 0xF97 JUMP JUMPDEST PUSH20 0xFFFFFFFFFFFFFFFFFFFFFFFFFFFFFFFFFFFFFFFF AND EQ PUSH2 0x63F JUMPI PUSH1 0x40 MLOAD PUSH32 0x8C379A000000000000000000000000000000000000000000000000000000000 DUP2 MSTORE PUSH1 0x4 ADD PUSH2 0x636 SWAP1 PUSH2 0x100C JUMP JUMPDEST PUSH1 0x40 MLOAD DUP1 SWAP2 SUB SWAP1 REVERT JUMPDEST PUSH1 0x40 MLOAD DUP1 PUSH1 0x40 ADD PUSH1 0x40 MSTORE DUP1 DUP3 DUP2 MSTORE PUSH1 0x20 ADD CALLER PUSH20 0xFFFFFFFFFFFFFFFFFFFFFFFFFFFFFFFFFFFFFFFF AND DUP2 MSTORE POP PUSH1 0x2 PUSH0 DUP5 DUP2 MSTORE PUSH1 0x20 ADD SWAP1 DUP2 MSTORE PUSH1 0x20 ADD PUSH0 KECCAK256 PUSH0 DUP3 ADD MLOAD DUP2 PUSH0 ADD SSTORE PUSH1 0x20 DUP3 ADD MLOAD DUP2 PUSH1 0x1 ADD PUSH0 PUSH2 0x100 EXP DUP2 SLOAD DUP2 PUSH20 0xFFFFFFFFFFFFFFFFFFFFFFFFFFFFFFFFFFFFFFFF MUL NOT AND SWAP1 DUP4 PUSH20 0xFFFFFFFFFFFFFFFFFFFFFFFFFFFFFFFFFFFFFFFF AND MUL OR SWAP1 SSTORE POP SWAP1 POP POP CALLER PUSH20 0xFFFFFFFFFFFFFFFFFFFFFFFFFFFFFFFFFFFFFFFF AND DUP3 PUSH32 0x50955776C5778C3B7D968D86D8C51FB6B29A7A74C20866B533268E209FC08343 DUP4 PUSH1 0x40 MLOAD PUSH2 0x713 SWAP2 SWAP1 PUSH2 0xF6A JUMP JUMPDEST PUSH1 0x40 MLOAD DUP1 SWAP2 SUB SWAP1 LOG3 POP POP JUMP JUMPDEST PUSH2 0x727 PUSH2 0xB69 JUMP JUMPDEST PUSH0 PUSH1 0x2 PUSH0 DUP4 DUP2 MSTORE PUSH1 0x20 ADD SWAP1 DUP2 MSTORE PUSH1 0x20 ADD PUSH0 KECCAK256 PUSH1 0x40 MLOAD DUP1 PUSH1 0x40 ADD PUSH1 0x40 MSTORE SWAP1 DUP2 PUSH0 DUP3 ADD SLOAD DUP2 MSTORE PUSH1 0x20 ADD PUSH1 0x1 DUP3 ADD PUSH0 SWAP1 SLOAD SWAP1 PUSH2 0x100 EXP SWAP1 DIV PUSH20 0xFFFFFFFFFFFFFFFFFFFFFFFFFFFFFFFFFFFFFFFF AND PUSH20 0xFFFFFFFFFFFFFFFFFFFFFFFFFFFFFFFFFFFFFFFF AND PUSH20 0xFFFFFFFFFFFFFFFFFFFFFFFFFFFFFFFFFFFFFFFF AND DUP2 MSTORE POP POP SWAP1 POP PUSH0 DUP2 PUSH0 ADD MLOAD GT PUSH2 0x7E9 JUMPI PUSH1 0x40 MLOAD PUSH32 0x8C379A000000000000000000000000000000000000000000000000000000000 DUP2 MSTORE PUSH1 0x4 ADD PUSH2 0x7E0 SWAP1 PUSH2 0x1074 JUMP JUMPDEST PUSH1 0x40 MLOAD DUP1 SWAP2 SUB SWAP1 REVERT JUMPDEST DUP1 PUSH0 ADD MLOAD CALLVALUE EQ PUSH2 0x82E JUMPI PUSH1 0x40 MLOAD PUSH32 0x8C379A000000000000000000000000000000000000000000000000000000000 DUP2 MSTORE PUSH1 0x4 ADD PUSH2 0x825 SWAP1 PUSH2 0x10DC JUMP JUMPDEST PUSH1 0x40 MLOAD DUP1 SWAP2 SUB SWAP1 REVERT JUMPDEST PUSH1 0x2 PUSH0 DUP4 DUP2 MSTORE PUSH1 0x20 ADD SWAP1 DUP2 MSTORE PUSH1 0x20 ADD PUSH0 KECCAK256 PUSH0 DUP1 DUP3 ADD PUSH0 SWAP1 SSTORE PUSH1 0x1 DUP3 ADD PUSH0 PUSH2 0x100 EXP DUP2 SLOAD SWAP1 PUSH20 0xFFFFFFFFFFFFFFFFFFFFFFFFFFFFFFFFFFFFFFFF MUL NOT AND SWAP1 SSTORE POP POP DUP1 PUSH1 0x20 ADD MLOAD PUSH20 0xFFFFFFFFFFFFFFFFFFFFFFFFFFFFFFFFFFFFFFFF AND PUSH2 0x8FC CALLVALUE SWAP1 DUP2 ISZERO MUL SWAP1 PUSH1 0x40 MLOAD PUSH0 PUSH1 0x40 MLOAD DUP1 DUP4 SUB DUP2 DUP6 DUP9 DUP9 CALL SWAP4 POP POP POP POP ISZERO DUP1 ISZERO PUSH2 0x8B5 JUMPI RETURNDATASIZE PUSH0 DUP1 RETURNDATACOPY RETURNDATASIZE PUSH0 REVERT JUMPDEST POP PUSH1 0x4 PUSH0 SWAP1 SLOAD SWAP1 PUSH2 0x100 EXP SWAP1 DIV PUSH20 0xFFFFFFFFFFFFFFFFFFFFFFFFFFFFFFFFFFFFFFFF AND PUSH20 0xFFFFFFFFFFFFFFFFFFFFFFFFFFFFFFFFFFFFFFFF AND PUSH4 0xE43059E5 DUP4 CALLER PUSH1 0x40 MLOAD DUP4 PUSH4 0xFFFFFFFF AND PUSH1 0xE0 SHL DUP2 MSTORE PUSH1 0x4 ADD PUSH2 0x912 SWAP3 SWAP2 SWAP1 PUSH2 0xDD0 JUMP JUMPDEST PUSH0 PUSH1 0x40 MLOAD DUP1 DUP4 SUB DUP2 PUSH0 DUP8 DUP1 EXTCODESIZE ISZERO DUP1 ISZERO PUSH2 0x929 JUMPI PUSH0 DUP1 REVERT JUMPDEST POP GAS CALL ISZERO DUP1 ISZERO PUSH2 0x93B JUMPI RETURNDATASIZE PUSH0 DUP1 RETURNDATACOPY RETURNDATASIZE PUSH0 REVERT JUMPDEST POP POP POP POP CALLER PUSH20 0xFFFFFFFFFFFFFFFFFFFFFFFFFFFFFFFFFFFFFFFF AND DUP3 PUSH32 0xFD51B2C9F55C42D2B72AC683526519563BE02FC0107F034FF430C05185FF1B66 DUP4 PUSH0 ADD MLOAD PUSH1 0x40 MLOAD PUSH2 0x989 SWAP2 SWAP1 PUSH2 0xF6A JUMP JUMPDEST PUSH1 0x40 MLOAD DUP1 SWAP2 SUB SWAP1 LOG3 POP PUSH2 0x99A PUSH2 0xBB8 JUMP JUMPDEST POP JUMP JUMPDEST PUSH2 0x9A5 PUSH2 0xA21 JUMP JUMPDEST PUSH0 PUSH20 0xFFFFFFFFFFFFFFFFFFFFFFFFFFFFFFFFFFFFFFFF AND DUP2 PUSH20 0xFFFFFFFFFFFFFFFFFFFFFFFFFFFFFFFFFFFFFFFF AND SUB PUSH2 0xA15 JUMPI PUSH0 PUSH1 0x40 MLOAD PUSH32 0x1E4FBDF700000000000000000000000000000000000000000000000000000000 DUP2 MSTORE PUSH1 0x4 ADD PUSH2 0xA0C SWAP2 SWAP1 PUSH2 0xCFB JUMP JUMPDEST PUSH1 0x40 MLOAD DUP1 SWAP2 SUB SWAP1 REVERT JUMPDEST PUSH2 0xA1E DUP2 PUSH2 0xAA8 JUMP JUMPDEST POP JUMP JUMPDEST PUSH2 0xA29 PUSH2 0xBC1 JUMP JUMPDEST PUSH20 0xFFFFFFFFFFFFFFFFFFFFFFFFFFFFFFFFFFFFFFFF AND PUSH2 0xA47 PUSH2 0x448 JUMP JUMPDEST PUSH20 0xFFFFFFFFFFFFFFFFFFFFFFFFFFFFFFFFFFFFFFFF AND EQ PUSH2 0xAA6 JUMPI PUSH2 0xA6A PUSH2 0xBC1 JUMP JUMPDEST PUSH1 0x40 MLOAD PUSH32 0x118CDAA700000000000000000000000000000000000000000000000000000000 DUP2 MSTORE PUSH1 0x4 ADD PUSH2 0xA9D SWAP2 SWAP1 PUSH2 0xCFB JUMP JUMPDEST PUSH1 0x40 MLOAD DUP1 SWAP2 SUB SWAP1 REVERT JUMPDEST JUMP JUMPDEST PUSH0 DUP1 PUSH0 SWAP1 SLOAD SWAP1 PUSH2 0x100 EXP SWAP1 DIV PUSH20 0xFFFFFFFFFFFFFFFFFFFFFFFFFFFFFFFFFFFFFFFF AND SWAP1 POP DUP2 PUSH0 DUP1 PUSH2 0x100 EXP DUP2 SLOAD DUP2 PUSH20 0xFFFFFFFFFFFFFFFFFFFFFFFFFFFFFFFFFFFFFFFF MUL NOT AND SWAP1 DUP4 PUSH20 0xFFFFFFFFFFFFFFFFFFFFFFFFFFFFFFFFFFFFFFFF AND MUL OR SWAP1 SSTORE POP DUP2 PUSH20 0xFFFFFFFFFFFFFFFFFFFFFFFFFFFFFFFFFFFFFFFF AND DUP2 PUSH20 0xFFFFFFFFFFFFFFFFFFFFFFFFFFFFFFFFFFFFFFFF AND PUSH32 0x8BE0079C531659141344CD1FD0A4F28419497F9722A3DAAFE3B4186F6B6457E0 PUSH1 0x40 MLOAD PUSH1 0x40 MLOAD DUP1 SWAP2 SUB SWAP1 LOG3 POP POP JUMP JUMPDEST PUSH1 0x2 PUSH1 0x1 SLOAD SUB PUSH2 0xBAE JUMPI PUSH1 0x40 MLOAD PUSH32 0x8C379A000000000000000000000000000000000000000000000000000000000 DUP2 MSTORE PUSH1 0x4 ADD PUSH2 0xBA5 SWAP1 PUSH2 0x1144 JUMP JUMPDEST PUSH1 0x40 MLOAD DUP1 SWAP2 SUB SWAP1 REVERT JUMPDEST PUSH1 0x2 PUSH1 0x1 DUP2 SWAP1 SSTORE POP JUMP JUMPDEST PUSH1 0x1 DUP1 DUP2 SWAP1 SSTORE POP JUMP JUMPDEST PUSH0 CALLER SWAP1 POP SWAP1 JUMP JUMPDEST PUSH1 0x40 MLOAD DUP1 PUSH1 0x40 ADD PUSH1 0x40 MSTORE DUP1 PUSH0 DUP2 MSTORE PUSH1 0x20 ADD PUSH0 PUSH20 0xFFFFFFFFFFFFFFFFFFFFFFFFFFFFFFFFFFFFFFFF AND DUP2 MSTORE POP SWAP1 JUMP JUMPDEST PUSH0 DUP1 REVERT JUMPDEST PUSH0 DUP2 SWAP1 POP SWAP2 SWAP1 POP JUMP JUMPDEST PUSH2 0xC0C DUP2 PUSH2 0xBFA JUMP JUMPDEST DUP2 EQ PUSH2 0xC16 JUMPI PUSH0 DUP1 REVERT JUMPDEST POP JUMP JUMPDEST PUSH0 DUP2 CALLDATALOAD SWAP1 POP PUSH2 0xC27 DUP2 PUSH2 0xC03 JUMP JUMPDEST SWAP3 SWAP2 POP POP JUMP JUMPDEST PUSH0 PUSH1 0x20 DUP3 DUP5 SUB SLT ISZERO PUSH2 0xC42 JUMPI PUSH2 0xC41 PUSH2 0xBF6 JUMP JUMPDEST JUMPDEST PUSH0 PUSH2 0xC4F DUP5 DUP3 DUP6 ADD PUSH2 0xC19 JUMP JUMPDEST SWAP2 POP POP SWAP3 SWAP2 POP POP JUMP JUMPDEST PUSH2 0xC61 DUP2 PUSH2 0xBFA JUMP JUMPDEST DUP3 MSTORE POP POP JUMP JUMPDEST PUSH0 PUSH20 0xFFFFFFFFFFFFFFFFFFFFFFFFFFFFFFFFFFFFFFFF DUP3 AND SWAP1 POP SWAP2 SWAP1 POP JUMP JUMPDEST PUSH0 PUSH2 0xC90 DUP3 PUSH2 0xC67 JUMP JUMPDEST SWAP1 POP SWAP2 SWAP1 POP JUMP JUMPDEST PUSH2 0xCA0 DUP2 PUSH2 0xC86 JUMP JUMPDEST DUP3 MSTORE POP POP JUMP JUMPDEST PUSH1 0x40 DUP3 ADD PUSH0 DUP3 ADD MLOAD PUSH2 0xCBA PUSH0 DUP6 ADD DUP3 PUSH2 0xC58 JUMP JUMPDEST POP PUSH1 0x20 DUP3 ADD MLOAD PUSH2 0xCCD PUSH1 0x20 DUP6 ADD DUP3 PUSH2 0xC97 JUMP JUMPDEST POP POP POP POP JUMP JUMPDEST PUSH0 PUSH1 0x40 DUP3 ADD SWAP1 POP PUSH2 0xCE6 PUSH0 DUP4 ADD DUP5 PUSH2 0xCA6 JUMP JUMPDEST SWAP3 SWAP2 POP POP JUMP JUMPDEST PUSH2 0xCF5 DUP2 PUSH2 0xC86 JUMP JUMPDEST DUP3 MSTORE POP POP JUMP JUMPDEST PUSH0 PUSH1 0x20 DUP3 ADD SWAP1 POP PUSH2 0xD0E PUSH0 DUP4 ADD DUP5 PUSH2 0xCEC JUMP JUMPDEST SWAP3 SWAP2 POP POP JUMP JUMPDEST PUSH0 DUP2 SWAP1 POP SWAP2 SWAP1 POP JUMP JUMPDEST PUSH0 PUSH2 0xD37 PUSH2 0xD32 PUSH2 0xD2D DUP5 PUSH2 0xC67 JUMP JUMPDEST PUSH2 0xD14 JUMP JUMPDEST PUSH2 0xC67 JUMP JUMPDEST SWAP1 POP SWAP2 SWAP1 POP JUMP JUMPDEST PUSH0 PUSH2 0xD48 DUP3 PUSH2 0xD1D JUMP JUMPDEST SWAP1 POP SWAP2 SWAP1 POP JUMP JUMPDEST PUSH0 PUSH2 0xD59 DUP3 PUSH2 0xD3E JUMP JUMPDEST SWAP1 POP SWAP2 SWAP1 POP JUMP JUMPDEST PUSH2 0xD69 DUP2 PUSH2 0xD4F JUMP JUMPDEST DUP3 MSTORE POP POP JUMP JUMPDEST PUSH0 PUSH1 0x20 DUP3 ADD SWAP1 POP PUSH2 0xD82 PUSH0 DUP4 ADD DUP5 PUSH2 0xD60 JUMP JUMPDEST SWAP3 SWAP2 POP POP JUMP JUMPDEST PUSH0 PUSH2 0xD92 DUP3 PUSH2 0xD3E JUMP JUMPDEST SWAP1 POP SWAP2 SWAP1 POP JUMP JUMPDEST PUSH2 0xDA2 DUP2 PUSH2 0xD88 JUMP JUMPDEST DUP3 MSTORE POP POP JUMP JUMPDEST PUSH0 PUSH1 0x20 DUP3 ADD SWAP1 POP PUSH2 0xDBB PUSH0 DUP4 ADD DUP5 PUSH2 0xD99 JUMP JUMPDEST SWAP3 SWAP2 POP POP JUMP JUMPDEST PUSH2 0xDCA DUP2 PUSH2 0xBFA JUMP JUMPDEST DUP3 MSTORE POP POP JUMP JUMPDEST PUSH0 PUSH1 0x40 DUP3 ADD SWAP1 POP PUSH2 0xDE3 PUSH0 DUP4 ADD DUP6 PUSH2 0xDC1 JUMP JUMPDEST PUSH2 0xDF0 PUSH1 0x20 DUP4 ADD DUP5 PUSH2 0xCEC JUMP JUMPDEST SWAP4 SWAP3 POP POP POP JUMP JUMPDEST PUSH0 DUP1 PUSH1 0x40 DUP4 DUP6 SUB SLT ISZERO PUSH2 0xE0D JUMPI PUSH2 0xE0C PUSH2 0xBF6 JUMP JUMPDEST JUMPDEST PUSH0 PUSH2 0xE1A DUP6 DUP3 DUP7 ADD PUSH2 0xC19 JUMP JUMPDEST SWAP3 POP POP PUSH1 0x20 PUSH2 0xE2B DUP6 DUP3 DUP7 ADD PUSH2 0xC19 JUMP JUMPDEST SWAP2 POP POP SWAP3 POP SWAP3 SWAP1 POP JUMP JUMPDEST PUSH2 0xE3E DUP2 PUSH2 0xC86 JUMP JUMPDEST DUP2 EQ PUSH2 0xE48 JUMPI PUSH0 DUP1 REVERT JUMPDEST POP JUMP JUMPDEST PUSH0 DUP2 CALLDATALOAD SWAP1 POP PUSH2 0xE59 DUP2 PUSH2 0xE35 JUMP JUMPDEST SWAP3 SWAP2 POP POP JUMP JUMPDEST PUSH0 PUSH1 0x20 DUP3 DUP5 SUB SLT ISZERO PUSH2 0xE74 JUMPI PUSH2 0xE73 PUSH2 0xBF6 JUMP JUMPDEST JUMPDEST PUSH0 PUSH2 0xE81 DUP5 DUP3 DUP6 ADD PUSH2 0xE4B JUMP JUMPDEST SWAP2 POP POP SWAP3 SWAP2 POP POP JUMP JUMPDEST PUSH0 DUP3 DUP3 MSTORE PUSH1 0x20 DUP3 ADD SWAP1 POP SWAP3 SWAP2 POP POP JUMP JUMPDEST PUSH32 0x596F7520617265206E6F74207468652073656C6C657200000000000000000000 PUSH0 DUP3 ADD MSTORE POP JUMP JUMPDEST PUSH0 PUSH2 0xECE PUSH1 0x16 DUP4 PUSH2 0xE8A JUMP JUMPDEST SWAP2 POP PUSH2 0xED9 DUP3 PUSH2 0xE9A JUMP JUMPDEST PUSH1 0x20 DUP3 ADD SWAP1 POP SWAP2 SWAP1 POP JUMP JUMPDEST PUSH0 PUSH1 0x20 DUP3 ADD SWAP1 POP DUP2 DUP2 SUB PUSH0 DUP4 ADD MSTORE PUSH2 0xEFB DUP2 PUSH2 0xEC2 JUMP JUMPDEST SWAP1 POP SWAP2 SWAP1 POP JUMP JUMPDEST PUSH32 0x5072696365206D7573742062652067726561746572207468616E203000000000 PUSH0 DUP3 ADD MSTORE POP JUMP JUMPDEST PUSH0 PUSH2 0xF36 PUSH1 0x1C DUP4 PUSH2 0xE8A JUMP JUMPDEST SWAP2 POP PUSH2 0xF41 DUP3 PUSH2 0xF02 JUMP JUMPDEST PUSH1 0x20 DUP3 ADD SWAP1 POP SWAP2 SWAP1 POP JUMP JUMPDEST PUSH0 PUSH1 0x20 DUP3 ADD SWAP1 POP DUP2 DUP2 SUB PUSH0 DUP4 ADD MSTORE PUSH2 0xF63 DUP2 PUSH2 0xF2A JUMP JUMPDEST SWAP1 POP SWAP2 SWAP1 POP JUMP JUMPDEST PUSH0 PUSH1 0x20 DUP3 ADD SWAP1 POP PUSH2 0xF7D PUSH0 DUP4 ADD DUP5 PUSH2 0xDC1 JUMP JUMPDEST SWAP3 SWAP2 POP POP JUMP JUMPDEST PUSH0 DUP2 MLOAD SWAP1 POP PUSH2 0xF91 DUP2 PUSH2 0xE35 JUMP JUMPDEST SWAP3 SWAP2 POP POP JUMP JUMPDEST PUSH0 PUSH1 0x20 DUP3 DUP5 SUB SLT ISZERO PUSH2 0xFAC JUMPI PUSH2 0xFAB PUSH2 0xBF6 JUMP JUMPDEST JUMPDEST PUSH0 PUSH2 0xFB9 DUP5 DUP3 DUP6 ADD PUSH2 0xF83 JUMP JUMPDEST SWAP2 POP POP SWAP3 SWAP2 POP POP JUMP JUMPDEST PUSH32 0x4F6E6C7920746865207665726966696564206F776E65722063616E206C697374 PUSH0 DUP3 ADD MSTORE POP JUMP JUMPDEST PUSH0 PUSH2 0xFF6 PUSH1 0x20 DUP4 PUSH2 0xE8A JUMP JUMPDEST SWAP2 POP PUSH2 0x1001 DUP3 PUSH2 0xFC2 JUMP JUMPDEST PUSH1 0x20 DUP3 ADD SWAP1 POP SWAP2 SWAP1 POP JUMP JUMPDEST PUSH0 PUSH1 0x20 DUP3 ADD SWAP1 POP DUP2 DUP2 SUB PUSH0 DUP4 ADD MSTORE PUSH2 0x1023 DUP2 PUSH2 0xFEA JUMP JUMPDEST SWAP1 POP SWAP2 SWAP1 POP JUMP JUMPDEST PUSH32 0x546F6B656E206E6F74206C697374656400000000000000000000000000000000 PUSH0 DUP3 ADD MSTORE POP JUMP JUMPDEST PUSH0 PUSH2 0x105E PUSH1 0x10 DUP4 PUSH2 0xE8A JUMP JUMPDEST SWAP2 POP PUSH2 0x1069 DUP3 PUSH2 0x102A JUMP JUMPDEST PUSH1 0x20 DUP3 ADD SWAP1 POP SWAP2 SWAP1 POP JUMP JUMPDEST PUSH0 PUSH1 0x20 DUP3 ADD SWAP1 POP DUP2 DUP2 SUB PUSH0 DUP4 ADD MSTORE PUSH2 0x108B DUP2 PUSH2 0x1052 JUMP JUMPDEST SWAP1 POP SWAP2 SWAP1 POP JUMP JUMPDEST PUSH32 0x496E636F7272656374207061796D656E7420616D6F756E740000000000000000 PUSH0 DUP3 ADD MSTORE POP JUMP JUMPDEST PUSH0 PUSH2 0x10C6 PUSH1 0x18 DUP4 PUSH2 0xE8A JUMP JUMPDEST SWAP2 POP PUSH2 0x10D1 DUP3 PUSH2 0x1092 JUMP JUMPDEST PUSH1 0x20 DUP3 ADD SWAP1 POP SWAP2 SWAP1 POP JUMP JUMPDEST PUSH0 PUSH1 0x20 DUP3 ADD SWAP1 POP DUP2 DUP2 SUB PUSH0 DUP4 ADD MSTORE PUSH2 0x10F3 DUP2 PUSH2 0x10BA JUMP JUMPDEST SWAP1 POP SWAP2 SWAP1 POP JUMP JUMPDEST PUSH32 0x5265656E7472616E637947756172643A207265656E7472616E742063616C6C00 PUSH0 DUP3 ADD MSTORE POP JUMP JUMPDEST PUSH0 PUSH2 0x112E PUSH1 0x1F DUP4 PUSH2 0xE8A JUMP JUMPDEST SWAP2 POP PUSH2 0x1139 DUP3 PUSH2 0x10FA JUMP JUMPDEST PUSH1 0x20 DUP3 ADD SWAP1 POP SWAP2 SWAP1 POP JUMP JUMPDEST PUSH0 PUSH1 0x20 DUP3 ADD SWAP1 POP DUP2 DUP2 SUB PUSH0 DUP4 ADD MSTORE PUSH2 0x115B DUP2 PUSH2 0x1122 JUMP JUMPDEST SWAP1 POP SWAP2 SWAP1 POP JUMP INVALID LOG2 PUSH5 0x6970667358 0x22 SLT KECCAK256 PUSH12 0x6E4969E5D808D061423C959A SAR 0xD6 0xC 0xCA 0xC8 CALLCODE DUP12 0xEF 0xD3 PUSH23 0xCD8B92C5126712A3B464736F6C634300081A0033000000 "
				},
				"gasEstimates": {
					"creation": {
						"codeDepositCost": "900800",
						"executionCost": "infinite",
						"totalCost": "infinite"
					},
					"external": {
						"cancelListing(uint256)": "35761",
						"getListing(uint256)": "infinite",
						"listForSale(uint256,uint256)": "infinite",
						"listings(uint256)": "infinite",
						"mintContract()": "infinite",
						"owner()": "2582",
						"ownershipControl()": "infinite",
						"purchase(uint256)": "infinite",
						"renounceOwnership()": "infinite",
						"transferOwnership(address)": "infinite"
					}
				},
				"methodIdentifiers": {
					"cancelListing(uint256)": "305a67a8",
					"getListing(uint256)": "107a274a",
					"listForSale(uint256,uint256)": "e80d7fec",
					"listings(uint256)": "de74e57b",
					"mintContract()": "d0b6b6db",
					"owner()": "8da5cb5b",
					"ownershipControl()": "ab80eee4",
					"purchase(uint256)": "efef39a1",
					"renounceOwnership()": "715018a6",
					"transferOwnership(address)": "f2fde38b"
				}
			},
			"storageLayout": {
				"storage": [
					{
						"astId": 8,
						"contract": "contracts/OpenSale.sol:OpenSale",
						"label": "_owner",
						"offset": 0,
						"slot": "0",
						"type": "t_address"
					},
					{
						"astId": 158,
						"contract": "contracts/OpenSale.sol:OpenSale",
						"label": "_status",
						"offset": 0,
						"slot": "1",
						"type": "t_uint256"
					},
					{
						"astId": 289,
						"contract": "contracts/OpenSale.sol:OpenSale",
						"label": "listings",
						"offset": 0,
						"slot": "2",
						"type": "t_mapping(t_uint256,t_struct(Listing)283_storage)"
					},
					{
						"astId": 292,
						"contract": "contracts/OpenSale.sol:OpenSale",
						"label": "mintContract",
						"offset": 0,
						"slot": "3",
						"type": "t_contract(IMintContract)257"
					},
					{
						"astId": 295,
						"contract": "contracts/OpenSale.sol:OpenSale",
						"label": "ownershipControl",
						"offset": 0,
						"slot": "4",
						"type": "t_contract(IOwnershipControl)273"
					}
				],
				"types": {
					"t_address": {
						"encoding": "inplace",
						"label": "address",
						"numberOfBytes": "20"
					},
					"t_contract(IMintContract)257": {
						"encoding": "inplace",
						"label": "contract IMintContract",
						"numberOfBytes": "20"
					},
					"t_contract(IOwnershipControl)273": {
						"encoding": "inplace",
						"label": "contract IOwnershipControl",
						"numberOfBytes": "20"
					},
					"t_mapping(t_uint256,t_struct(Listing)283_storage)": {
						"encoding": "mapping",
						"key": "t_uint256",
						"label": "mapping(uint256 => struct OpenSale.Listing)",
						"numberOfBytes": "32",
						"value": "t_struct(Listing)283_storage"
					},
					"t_struct(Listing)283_storage": {
						"encoding": "inplace",
						"label": "struct OpenSale.Listing",
						"members": [
							{
								"astId": 280,
								"contract": "contracts/OpenSale.sol:OpenSale",
								"label": "price",
								"offset": 0,
								"slot": "0",
								"type": "t_uint256"
							},
							{
								"astId": 282,
								"contract": "contracts/OpenSale.sol:OpenSale",
								"label": "seller",
								"offset": 0,
								"slot": "1",
								"type": "t_address"
							}
						],
						"numberOfBytes": "64"
					},
					"t_uint256": {
						"encoding": "inplace",
						"label": "uint256",
						"numberOfBytes": "32"
					}
				}
			},
			"userdoc": {
				"kind": "user",
				"methods": {
					"cancelListing(uint256)": {
						"notice": "Cancel an active listing"
					},
					"getListing(uint256)": {
						"notice": "Get listing details"
					},
					"listForSale(uint256,uint256)": {
						"notice": "List a product NFT for sale"
					},
					"listings(uint256)": {
						"notice": "Token ID => Listing"
					},
					"purchase(uint256)": {
						"notice": "Purchase a listed product NFT"
					}
				},
				"notice": "A fixed-price resale platform for luxury product NFTs.",
				"version": 1
			}
		}
	}
}